:100000000C947C050C94C3050C94C3050C948C19BA
:100010000C94C3050C94C3050C94C3050C94C30540
:100020000C94C3050C94C3050C94D52C0C94A92DE9
:100030000C94A7250C94C3050C94C3050C94C3051C
:100040000C94C3050C94C3050C94C3050C94C30510
:100050000C94C3050C94F2250C94C3050C94C305B1
:100060000C94C3050C94C3050C94C3050C94C305F0
:100070000C94C3050C94C3050C94C3050C94C305E0
:100080000C94C3050C94C3050C94C3050C94C305D0
:100090000C9477180C94C3050C94C3050C94C305F9
:1000A0000C94C3050C94C3050C94C3050000000018
:1000B00000003E5B4F5B3E003E6B4F6B3E001C3EC4
:1000C0007C3E1C00183C7E3C18001C577D571C00D1
:1000D0001C5E7F5E1C0000183C180000FFE7C3E7B1
:1000E000FF00001824180000FFE7DBE7FF0030489E
:1000F0003A060E00262979292600407F05050700CB
:10010000407F05253F005A3CE73C5A007F3E1C1CBF
:100110000800081C1C3E7F0014227F2214005F5F31
:10012000005F5F0006097F017F00006689956A0015
:1001300060606060600094A2FFA2940008047E04E6
:10014000080010207E20100008082A1C0800081C47
:100150002A0808001E10101010000C1E0C1E0C00A7
:1001600030383E383000060E3E0E0600000000001B
:10017000000000005F000000000700070000147F7F
:10018000147F1400242A7F2A1200231308646200BB
:10019000364956205000000807030000001C224189
:1001A00000000041221C00002A1C7F1C2A000808B5
:1001B0003E080800008070300000080808080800A9
:1001C0000000606000002010080402003E51494514
:1001D0003E0000427F4000007249494946002141EB
:1001E000494D33001814127F10002745454539004A
:1001F0003C4A494931004121110907003649494922
:100200003600464949291E00000014000000004045
:1002100034000000000814224100141414141400C7
:100220000041221408000201590906003E415D59AF
:100230004E007C1211127C007F49494936003E4134
:10024000414122007F4141413E007F4949494100EF
:100250007F09090901003E41415173007F080808E8
:100260007F0000417F4100002040413F01007F08A6
:10027000142241007F40404040007F021C027F006A
:100280007F0408107F003E4141413E007F0909097B
:1002900006003E4151215E007F091929460026498A
:1002A0004949320003017F0103003F4040403F00C5
:1002B0001F2040201F003F4038403F0063140814B7
:1002C00063000304780403006159494D4300007F33
:1002D00041414100020408102000004141417F00DB
:1002E00004020102040040404040400000030708AF
:1002F00000002054547840007F284444380038449B
:1003000044442800384444287F003854545418008A
:1003100000087E0902001824241C78007F080404C9
:10032000780000447D4000002040403D00007F10E8
:100330002844000000417F4000007C0478047800DD
:100340007C08040478003844444438007C18242491
:100350001800182424187C007C0804040800485461
:100360005454240004043F4424003C4040207C00BA
:100370001C2040201C003C4030403C0044281028F9
:1003800044004C9090907C004464544C440000081D
:1003900036410000000077000000004136080000F0
:1003A0000201020402003C2623263C00000000005B
:1003B00000E0F070303030303030303C1C04000051
:1003C00000000000000C3CFCFCF0C000000000003D
:1003D00000C0F0FCFC1C3CFCFCF0C0000000000075
:1003E00000C0F0FCFC1C00FCFCFCFC000000000059
:1003F0000000000000000080E0FCFCFCFCF0C000FD
:100400000000000000FCFCFCF8E0C0000000000060
:10041000FCFCFC000000C0E0F0F8783C1C1C1C1C3C
:100420001C3CF8F8F0E000000000E0F0F0F0E0EC38
:10043000EEF7F37020007C7C7C7E007E7E7E7F7FEA
:100440007F000080C0E07E5B4F5BFEC00000C0000C
:10045000DCD7DEDEDED7DC00C000000000000000DC
:100460000000000000000000000000000000FE2B63
:10047000572B572B572B572B572B572B572B572B6C
:10048000572B57FF00000000071FFFFEF080C0F051
:10049000FEFF1F0300000000071FFFFEF080C0F0FA
:1004A000FEFF1F03000000FFFFFFFF000000000031
:1004B00000000000E0F0FCFF7F777170777FFFFEA7
:1004C000F8C0000000FFFFFF01070F3F7EF8F0E0DB
:1004D000FFFFFF000018FFFFFF8100000000383819
:1004E000383838F9F9F8000000000F1F3F7F7F7F90
:1004F0007F7F3F1E0C001F1F1F3F003F3F3F7F7F3E
:100500007F00307B7F7830202030787F3B000300F5
:100510000F7F0F0F0F7F0F0003000000000000008F
:1005200000000000000000000000000000000F08B4
:10053000080808080B0B0B0B0B0B0B0B0B0B0B081A
:100540000808080F00000000000000070F0F0F0F41
:100550000700000000000000000000070F0F0F0F51
:10056000070000000000000F0F0F0F0E0E0E0E0E02
:100570000E000C0F0F0F0F01000000000000000321
:100580000F0F0F0C000F0F0F000000000001030FF2
:100590000F0F0F0000000007070F0F0E1E1C1C1E80
:1005A0001E1E0F0F070700000000000000000000E3
:1005B000000000000000000000000000000000003B
:1005C000000000000000000000000000000000002B
:1005D000000000000000000000000000000000001B
:1005E0000000000000000000000000002B001400CC
:1005F0001A00080015001700E000040016000700AC
:1006000009000A00E1001D001B000600190005009A
:10061000000000000000E300295D2C002A00130008
:1006200012000C0018001C00340033000F000E00F4
:100630000D000B00E50038003700360010001100F7
:10064000000000000000E6002A5D280029001E00CE
:100650001F00200021002200E00000000000000038
:1006600000000000E10000000000000000000000A9
:10067000000000000000E300295D2C002A00270094
:100680002600250024002300000000004F00520037
:1006900051005000000000000000000000000000B9
:1006A000000000000000E6002A5D280029001E026C
:1006B0001F02200221022202E000000000000000D0
:1006C00000000000E1000000000000000000000049
:1006D000000000000000E300295D2C002A00270232
:1006E00026022502240223023500310230022F02A5
:1006F0002E002D003502310030002F002E022D0279
:10070000000000000000E6002A5D2800005C2D5D6E
:100710000000000000000000C25CC55CC75CC95C52
:1007200000000000C35CC65CC85CCA5C000000003E
:10073000000000000000E300295D2C000000000024
:1007400000000000000000000000000000000000A9
:100750000000000000000000000000000000000099
:10076000000000000000E6002A5D280032190A009F
:10077000047F3F1F643214643214783C1E1E140A36
:10078000052223252628292A2C2D2F3032333536D1
:10079000383A3B3D3E4042434547494A4C4E505112
:1007A000535557595A5C5E6062646668696B6D6F39
:1007B00071737577797B7D7F81838587898A8C8E3C
:1007C00090929496989A9C9E9FA1A3A5A7A8AAAC44
:1007D000AEAFB1B3B4B6B8B9BBBCBEBFC1C2C3C57E
:1007E000C6C7C9CACBCCCDCED0D1D2D2D3D4D5D620
:1007F000D7D7D8D9D9DADADBDBDBDCDCDCDCDCDD53
:10080000DDDDDDDCDCDCDCDCDBDBDBDADAD9D9D836
:10081000D7D7D6D5D4D3D2D2D1D0CECDCCCBCAC9CE
:10082000C7C6C5C3C2C1BFBEBCBBB9B8B6B4B3B1FD
:10083000AFAEACAAA8A7A5A3A19F9E9C9A98969498
:1008400092908E8C8A89878583817F7D7B7977756D
:1008500073716F6D6B6968666462605E5C5A59574C
:10086000555351504E4C4A4947454342403E3D3B0B
:100870003A3836353332302F2D2C2A292826252395
:1008800022FFAA7F55400001010101010101010180
:100890000202020202020202020303030303030331
:1008A00003040404040404040505050505060606FE
:1008B0000606070707070708080808090909090ABB
:1008C0000A0A0B0B0B0C0C0C0D0D0D0E0E0E0F0F60
:1008D0000F101011111112121313141415151616EE
:1008E0001717181819191A1A1B1B1C1D1D1E1E1F5D
:1008F0002020212222232424252626272829292AAC
:100900002B2C2D2D2E2F30313232333435363738D3
:10091000393A3B3C3D3E3F404142434445464748CF
:10092000494A4C4D4E4F50515354555658595A5BA5
:100930005D5E5F616264656668696B6C6D6F707245
:10094000737577787A7B7D7E8082838587888A8CB1
:100950008E8F91939596989A9C9EA0A2A3A5A7A9E5
:10096000ABADAFB1B3B5B7BABCBEC0C2C4C6C9CBDC
:10097000CDCFD1D4D6D8DBDDDFE2E4E7E9EBEEF092
:10098000F3F5F8FAFDFF22000321007D00220003A9
:1009900021007F00DA02818FD9F1DB40A4A62EAFBF
:1009A000810000A1C800A0C000AED580A81FD30060
:1009B000408D142000000403300000004A0356005C
:1009C00076006C0061006E00670020004B0065003F
:1009D000790062006F006100720064002000520024
:1009E000650076002E003100200028004C006500D4
:1009F00067006100630079002000530070006C0004
:100A000069007400290000000E03760076006C0077
:100A100061006E00670000000403090409023B0046
:100A2000020100A0FA0904000001030101000921EC
:100A3000110100012240000705810308000A090492
:100A400001000103000000092111010001224F00F3
:100A50000705820320000A1201100100000008535C
:100A600046010001000102030105010902A10185FF
:100A7000020901A1000509190129051500250195A3
:100A80000575018102950175038101050109300990
:100A9000311581257F950275088106093815812554
:100AA0007F950175088106050C0A38021581257F9E
:100AB000950175088106C0C005010906A101050759
:100AC00019E029E7150025019508750181029501B6
:100AD000750881010507190029FF150026FF0095FB
:100AE000067508810005081901290595057501910C
:100AF00002950175039101C011241FBECFEFDAE00A
:100B0000DEBFCDBF04B603FE27C08091C90490911B
:100B1000CA04A091CB04B091CC048730904BA7407D
:100B2000B04BD1F41092C9041092CA041092CB04B5
:100B30001092CC0414BE84B7877F84BF0FB6F8949C
:100B4000A895809160008861809360001092600099
:100B50000FBEE0E0F8E3099512E0A0E0B1E0E8E1C3
:100B6000F8E602C005900D92AA35B107D9F724E046
:100B7000AAE5B2E001C01D92A93CB207E1F70E94CC
:100B8000152A0C94D2330C940000CF93DF93AFE876
:100B9000B1E043E951E0C1E0D0E08D91E82FE2956A
:100BA000EF70F0E061A18F709E0101C0220F8A9565
:100BB000EAF7922F9095962391A382A1822B82A38C
:100BC0004A175B0751F7DF91CF9108950C94E7081E
:100BD000209A559A289A5D9A08955D9808955D9A8D
:100BE000089528980895289A08950E94AA070E94B7
:100BF000C505A9E8B1E061E070E08D91E82FE295CC
:100C0000EF70F0E041A18F709B0101C0220F8A9527
:100C1000EAF7922F9095942391A382A1822B82A32D
:100C200081E0AF38B80749F70E94E805E2E6F2E054
:100C3000AAE5B2E011921D9282E0EA36F807D1F7F8
:100C40000E948C0780936A020C94060A8F929F92EE
:100C5000AF92BF92CF92DF92EF92FF920F931F93CA
:100C6000CF93DF9380910501C4E0D0E0882311F099
:100C7000D0E0C0E08FE8C82E81E0D82EAE01465A01
:100C80005D4F7A018A01912CAA24A394B12C25E00E
:100C9000822EF60181916F01E82FE295EF70F0E06E
:100CA00021A18F70A50102C0440F551F8A95E2F75C
:100CB000CA01922F982B91A392A18095892382A398
:100CC00050EA5A95F1F7E9E8F1E020E050E040E021
:100CD0003191A32FA295AF70B0E090968C9190E0E7
:100CE0003F7002C0959587953A95E2F780FD3CC02C
:100CF000C501042E01C0880F0A94EAF7282B4F5F24
:100D00005F4F4630510521F7F8018081821729F0A5
:100D1000208380920401992493940E94C5050F5F5B
:100D20001F4FF3E9CF16F1E0DF0609F0B2CF809153
:100D30000401882359F08150809304018823B1F085
:100D40008FE99FE00197F1F700C00000892DDF9146
:100D5000CF911F910F91FF90EF90DF90CF90BF90B8
:100D6000AF909F908F90089580E0C8CFCE59DD4F0F
:100D700084E0F70191917F0199938150D1F7E6CFFB
:100D80000F931F93CF93DF932091050110E000E0B4
:100D9000222311F004E010E00E94C507EC01009747
:100DA00039F0029711F40E94F105C1E0D0E011C0C2
:100DB0000E94F305F801EE59FD4F80917602909163
:100DC0007702A0917802B091790280839183A28307
:100DD000B383CE01DF91CF911F910F9108950E94AF
:100DE000260690910501E4E0F0E0992311F0F0E08F
:100DF000E0E0EE59FD4F30E020E040E0D901AA5894
:100E0000BD4F5C919191591341E09C932F5F3F4FEF
:100E10002430310599F790916F02940F90936F02EF
:100E200008951F93CF93DF9380916A02882309F47A
:100E30004BC00E942606182F80910501C4E0D0E027
:100E4000882311F0D0E0C0E0CE59DD4F44E050E0FF
:100E5000BE0182E792E00E945F30488159816A8139
:100E60007B8140937202509373026093740270937B
:100E700075020E94C006892B11F10E94ED05809138
:100E80006B028F5F80936B02863070F0809105015A
:100E9000F0E0E0E0882311F0E4E0F0E0EE59FD4FEF
:100EA00010821182128213820E940E0AC1E0111177
:100EB00001C0C0E08C2FDF91CF911F9108950E9457
:100EC000EF0510926B02F0CF0E94EF06C1E0811196
:100ED00001C0C0E080910501811114C090E080E064
:100EE0008E599D4F4091720250917302609174022D
:100EF00070917502FC0140835183628373830E9469
:100F00000E0AD8CF84E090E0EBCFE82FF0E0EE5966
:100F1000FD4F80810895089580916C02811111C068
:100F20008091D80080618093D8008AE18A95F1F79A
:100F300000C09091D900892F817090FF82E080934A
:100F40006C0281E090916C02913009F080E008958C
:100F50000C948C070E94A807809305010E948C07BF
:100F6000882321F00E94B907789408950E94BF0752
:100F7000FBCF63E070E086E091E00C94391963E008
:100F800070E086E091E00C9442190F931F93CF9389
:100F9000DF938C0190911F0180911E01D0E0C0E091
:100FA000981759F082E090E00E941B1AEC01892BFF
:100FB00021F480911E0180931F0180916D02909118
:100FC0006E02082B192B90E080E0012B11F081E0DC
:100FD00090E00E941B1A892B71F480916F0280931C
:100FE0001E0110926E0210926D02CE01DF91CF9120
:100FF0001F910F91089581E090E090936E0280938D
:101000006D02F3CF8091B1039091B203A091B3032D
:10101000B091B40384309105A105B105E1F128F543
:101020000097A105B10571F163EB71E08230910584
:10103000A105B10549F1BF93AF939F938F938EECB8
:1010400091E09F938F931F9288E18F938FED93E0B0
:101050009F938F930E948C308DB79EB70A960FB6E0
:10106000F8949EBF0FBE8DBF13C088309105A105B7
:10107000B10529F08E309105A105B105E1F660ECCE
:1010800071E002C067E971E08FED93E00E94853066
:101090008FED93E0089566EA71E0F6CF80E291E08B
:1010A0000895CF93C0E28C33910520F4FC01E05108
:1010B000FE4FC0811F92CF939F938F93FB0180813E
:1010C0001F928F9381811F928F938FED91E09F9359
:1010D0008F931F9288E18F9381E992E09F938F9382
:1010E0000E948C308DB79EB70E960FB6F8949EBFB7
:1010F0000FBE8DBF80917A0290917B02449761F47C
:1011000010927B0210927A02ECE7F2E080E2819387
:1011100092E0E039F907D9F780917A0290917B0249
:10112000FC01E458FD4FC083019690937B028093AD
:101130007A02CF91089581E992E008950C94D9083C
:101140000F931F93CF93DF93EC018B010E94221822
:10115000882351F0B801CE010E9446098170DF91C9
:10116000CF911F910F91089580E0F8CFCF93DF9337
:10117000EC010E946A24BE0190E080E0DF91CF91F3
:101180000C94AB21CF93DF93D62FC42F0E940D2256
:10119000882351F08D2F0E940D22882329F08C2F57
:1011A000DF91CF910C942D228C2FDF91CF910C9455
:1011B0004E228091F903869590E09093F8038093F6
:1011C000F7030E948C0791E089270C94BB170C94BD
:1011D0000818CF93DF93EC0180916A02882371F0A5
:1011E0000E940208BC01CE010E9437170E949B0892
:1011F000BC01CE01DF91CF910C9437170E944E08AD
:10120000BC01CE01DF91CF910C9425170F931F9352
:10121000CF93DF93EC018B0144E550E00E945F30F7
:10122000892B59F084E5F801DE0101900D928A9531
:10123000E1F7CA5ADF4F81E08883DF91CF911F9198
:101240000F910895CF93DF93CDB7DEB7C755D1097E
:101250000FB6F894DEBF0FBECDBFCE0101960E943F
:101260004317CE0101960E94E908BE016F5F7F4FD0
:101270008FE494E00E940609C95ADF4F0FB6F89434
:10128000DEBF0FBECDBFDF91CF9108950F931F93A7
:10129000CF93DF938C01EB018A81882319F0C80179
:1012A0000E94510809328DE5180761F150F4033CA2
:1012B0008CE5180709F44CC008321D45D1F0C1E097
:1012C00037C00B328DE51807C9F140F10D321D45CD
:1012D000B1F7CA81CC2399F30E940F0D0E94991295
:1012E0008091F903869590E09093F8038093F7033B
:1012F0001FC0CA81CC23E1F081E090E00E94B608D3
:10130000C0E016C0CA8181E0CC2359F00E942D2292
:1013100043E062E081E00E94C208F2CFCA8182E02D
:10132000F3CF0E944E2243E062E081E00E94C208B7
:101330008C2FDF91CF911F910F910895CA8183E087
:10134000CC2319F00E942D22DBCF0E944E22F0CF39
:10135000CA81CC2369F38091F7030E9496120E9400
:1013600086128091F903869590E09093F80380931C
:10137000F703C6CF81E0089508950C94BC091F932C
:10138000CF93DF9300D000D00F92CDB7DEB7498363
:101390005A836B8330915A0389819A8131111DC020
:1013A0006623B9F02223A9F00E942023182F682F6A
:1013B00089819A810E94C92269817A81812F0F9047
:1013C0000F900F900F900F90DF91CF911F910C9481
:1013D000710A0E94F722182FEFCF0E942023698103
:1013E0007A81EDCFFC01262F40815181628173818A
:1013F00084810C94BF09CF93DF93EC0160E00E94DD
:10140000F209BE01DF91CF910C94BD090E945724CF
:10141000811102C00E94F9240C949E080C94E605E8
:1014200008950C94100A81E008950C94130ACF9348
:10143000C82F0E94110A8C2FCF910C94150A089581
:101440000E949A1E0E941F0A2FEF84E39CE0215005
:1014500080409040E1F700C000000C9416260F93E6
:101460001F93CF93DF93EC0161E00E94F2098C019E
:10147000BE010E94A008882359F1BE01C8010E9444
:10148000F814882329F1BE01C8010E944A15882357
:10149000F9F0BE01C8010E946D168823C9F0BE0193
:1014A000C8010E94D113882399F08A81882339F0DA
:1014B00001158CE5180751F00E3D1C4579F0CE0161
:1014C000DF91CF911F910F910C94BA090E94200ACD
:1014D00080E0DF91CF911F910F9108950E94F92430
:1014E000F7CF972F70E026E0929F600D711D1124B9
:1014F000FB0190E3899FE00DF11D1124EE0FFF1F0A
:10150000E451FA4F859194910895CF93DF930E940F
:10151000710A0E945D0BEC01811522E5920778F5B6
:10152000811531E5930708F098C08F3F910509F0C8
:10153000B8F4803F910508F06FC0853A910540F4FA
:101540008430910548F4019739F0D0E0C0E004C040
:10155000805E91090897C8F7CE01DF91CF91089579
:10156000811540E5940708F05CC0C11580E4D807F8
:1015700008F054C0C11590E2D90770F3E6CF811589
:1015800026E5920718F5811535E5930708F07DC02B
:10159000811544E5940708F073C0982F96959695A9
:1015A0009E0123703327C115D34508F45BC0C1E009
:1015B000D0E002C0CC0FDD1F2A95E2F730E2939F06
:1015C000C0011124C82BD92BDA68C6CFC1159AE502
:1015D000D90778F4C11529E5D20708F060C0C11514
:1015E00038E5D30708F4B1CFDC2FCC27C06FD06A21
:1015F000B3CFCE0190568115904208F0A6CF8D2F23
:101600008F710E94F40B90E0982F882788279F7194
:101610009C012C2BE90141C0D0659ECFDF70D06AC0
:101620009BCFE4E096958795EA95E1F783702C2FA0
:1016300026952695237090E2299F90011124382B3E
:101640008C2F8370C1E0D0E002C0CC0FDD1F8A95E3
:10165000E2F7C22BD32BDC687FCFD82FCC27C16F0A
:10166000D06A7ACFC1E0D0E002C0CC0FDD1F2A954E
:10167000E2F720E2929FC0011124C82BD92BEBCFB7
:10168000D82FCC27C46FD06A67CF0E94F40BC82F25
:10169000D0E0DC2FCC27CC27DF71D0625DCF8C2F40
:1016A0008F700E94F40B34E0D695C7953A95E1F718
:1016B000CF709C2FEC01D0694FCF82389105B1F1EA
:1016C000B0F48133910509F475C048F4893291056D
:1016D00009F469C08A32910509F473C0089585330D
:1016E000910509F459C08933910501F10895833EAC
:1016F0009105A9F138F4803E9105F9F0823E9105FB
:1017000049F10895863E9105A9F1873E9105C9F1F9
:10171000843E910519F52091BB0421FF1FC08091E3
:10172000BA0484FD14C087EE90E008952091BA04B5
:101730002370A1F080EE90E008952091BA0420FD7E
:1017400047C03091BB0430FF09C024FF44C090E083
:1017500080E004C02091BA0422FDF7CF08952091C3
:10176000BA0422FD3BC03091BB0430FDE3CF24FF1F
:10177000F5CFEDCF2091BA0423FFF0CF24FDE7CFC2
:10178000D2CF2091BA0423FD2CC03091BB0431FF8D
:10179000EECF84EE90E008952091BA0425FFDECFCD
:1017A00089E290E008952091BA0425FFD7CF85E320
:1017B00090E008952091BA0426FFD0CF8AE290E00D
:1017C00008952091BA0426FFC9CF81E390E00895DF
:1017D00089E390E0089583EE90E0089582EE90E032
:1017E000089586EE90E008959091BA0492FF06C0A5
:1017F000282F28712830F9F4877F846093FF06C072
:10180000282F28712831F1F4877E84612091BB0450
:1018100020FF06C0382F38713830D9F4877F8160B7
:1018200021FF06C0282F28712831D1F4877E8161DD
:1018300094FD877E0895282F24712430F9F68B7F3C
:101840008860DCCF282F2471243101F78B7E8861DA
:10185000DDCF382F3171313019F78E7F8860E0CFBE
:10186000282F2171213121F78E7E8861E1CFEF92FF
:10187000FF920F931F93CF93DF93EB01E82FD111CA
:1018800010C0442321F0F0E0EA57F74FE4916E2FA7
:101890007E2F8E2FDF91CF911F910F91FF90EF90B0
:1018A00008950D2F10E0282F30E0442329F02A5707
:1018B000374FF901249130E0F6E0CF9FC0011124A9
:1018C000EFEFF0E0BF010E94752FAB018C2F90E08D
:1018D000880F991FA5E5A49FB001A59F700D112445
:1018E000861B970B982F990F980FBF01601B710BE8
:1018F000629FD001639FB00D729FB00D11248B2F9A
:101900009D9FB0011124672F7727EF01C61BD70BCE
:10191000BE01629FE001639FD00D729FD00D112424
:101920007F01E91AF108E09EB001E19E700DF09E82
:10193000700D1124672F7727E61BF70BE29F8001BC
:10194000E39F100DF29F100D1124E12F722F4230F2
:10195000510599F048F44115510569F041305105A0
:1019600081F0EB2F8D2F07C04430510569F080F0D6
:1019700046305105B1F76E2F8DCFE22F7B2F812F8F
:10198000FACFE22F7D2FF7CFEB2F822F712FF3CFDE
:101990007B2F822FED2FEFCF41E00C94370C089571
:1019A000CF93DF93762FE901682F842F0E94CC0C10
:1019B000798368838A83DF91CF910895493708F04E
:1019C00048E70C94D00C8091F903982F9E7F61F426
:1019D000817082608093F9038091FC03893718F04D
:1019E00088E78093FC0308958635B0F381708465A1
:1019F000F1CF88E090E00C943C33CF92DF92EF92ED
:101A0000FF926B017C010E94E30CB701A60188E004
:101A100090E0FF90EF90DF90CF900C945A33E9EF75
:101A2000F3E083E0808311828FEF828388E78383F2
:101A30001482ADE3B3E012968C91129783601296F4
:101A40008C9360817181828193810C94FD0C8091D3
:101A5000F90380FF02C08695089580E00895909173
:101A6000FD03933018F49F5F9093FD03882351F09A
:101A70006091F9037091FA038091FB039091FC034C
:101A80000C94FD0C089581E00C942F0D9091FD03B2
:101A9000992319F091509093FD03882351F06091A0
:101AA000F9037091FA038091FB039091FC030C946D
:101AB000FD0C089581E00C94460D70E00C944114E7
:101AC000609164018091F90380FF0AC080916301F5
:101AD00023E0829FC001112482509C4F0C945D0D25
:101AE000809165019091660123E0829FF0011124AD
:101AF000E250FC4F891750F71182108212828F5FDB
:101B00003396F8CF9091F90390FF14C0909165013E
:101B10002091660133E0939FF0011124E250FC4FC5
:101B2000921710F00C94600D8183608342839F5F55
:101B30003396F6CF0895CF93DF9300D00F92CDB7B1
:101B4000DEB79091F90390FF0AC09E012F5F3F4FCF
:101B50000E94DE0C4B8169818A810E94820D0F9068
:101B60000F900F90DF91CF910895CF93DF93EC0109
:101B7000EC81F0E0EF57F84F4491E9EFF3E0628138
:101B800081810E949B0D8C818F5F8C83DF91CF912F
:101B90000895CF93DF93EC01E9EFF3E04381628195
:101BA0008C810E949B0D8C818F5F8C83DF91CF9104
:101BB00008950F931F93CF93DF9300D00F92CDB76B
:101BC000DEB78C018091A90281110AC09E012F5FAE
:101BD0003F4F48E76FEF0E94DE0C8A818093A90295
:101BE000F8016481613069F08091A90240E06623C8
:101BF00061F040E0623011F44091A90280E060E0C1
:101C000004C06091A90240E080E00E94820DF801CA
:101C1000848190E0019663E070E00E94892F8483C4
:101C20000F900F900F90DF91CF911F910F9108951A
:101C3000AF92BF92CF92DF92EF92FF920F931F93DA
:101C4000CF93DF9300D00F92CDB7DEB7182FF62ECB
:101C5000042FE22E9091F90390FF3AC0E92FE69508
:101C6000AE2FB0E0A45DBD4F8C9180933D039E7F6D
:101C70009230E1F59E012F5F3F4F812F0E94DE0CD5
:101C80004B8169818A810E94820D8091FA038113C0
:101C900008C08091FB038F1104C08091FC03801762
:101CA00029F080913F03826080933F031093FA03F1
:101CB000F092FB030093FC03EE2051F06091F903D6
:101CC0007091FA038091FB039091FC030E94FD0C3C
:101CD0000F900F900F90DF91CF911F910F91FF9078
:101CE000EF90DF90CF90BF90AF900895823019F4BD
:101CF0000091FC03CACF863019F41091FA03C5CFC6
:101D00008930D9F3893109F6E9518E2F8170D82EA7
:101D1000E695F0E0EF57F74FA590B490C12CBB24A7
:101D200060916701C61618F00E94600DAECF2C2D91
:101D300030E0A29EC001A39E900DB29E900D112492
:101D400070E00E94752F812FD11013C0860F409133
:101D50006501420F532F511D9A01220F331F240F8B
:101D6000351F22503C4F402F6F2D0E94DE0CC39434
:101D7000D7CF861BECCFE9EFF3E09181282F438189
:101D800062818AE0890F0C94180E81E00C94BB0EDE
:101D9000E9EFF3E09181282F4381628186EF890F7B
:101DA0000C94180E81E00C94C80EE9EFF3E0628108
:101DB00021E1620F08F46FEF282F438181810C9499
:101DC000180E81E00C94D50EE9EFF3E0628121E179
:101DD000621B08F460E0282F438181810C94180E67
:101DE00081E00C94E40EE9EFF3E0438121E1420F3E
:101DF00008F44FEF282F628181810C94180E81E046
:101E00000C94F30EE9EFF3E0438121E1421B08F467
:101E100040E0282F628181810C94180E81E00C949F
:101E2000020F20E00C94180EEF92FF921F93CF93B5
:101E3000DF93EC0110E0EE24EA94F12C609167014D
:101E4000161770F00E94600D9A818C8190FF27C058
:101E50008F5F8C83DF91CF911F91FF90EF9008955A
:101E600020916501422F410F5527551FCA019A0144
:101E7000220F331F280F391F22503C4F70E0C7013B
:101E80000E94892F962F8C814091FC036091FB0367
:101E9000199F800D11240E94DE0C1F5FCFCF81504F
:101EA000D8CF8F929F92AF92BF92CF92DF92EF9254
:101EB000FF920F931F93CF93DF93EC018A81BB2492
:101EC000BA9480FD02C0BB24B3948C8181110AC0F6
:101ED00081E0B8122AC08091670181508093AB02E3
:101EE00081E08C83A12C4BE1942E80916701A81690
:101EF000F8F00E94600D8091AB0291E0B91261C0D0
:101F000081115AC08091670181508093AB021C827D
:101F1000DF91CF911F910F91FF90EF90DF90CF90C5
:101F2000BF90AF909F908F9008951092AB02D8CF42
:101F300000916501CA2CD12C0C0D1D2D111DC8015D
:101F4000880F991F080F191F02501C4FF8011182AA
:101F50001082128234E0E32EF12C812C8091AB02AE
:101F6000880D8C311CF1692D0E94672F892F082E56
:101F7000000C990BC816D90691F48091FC038E9D34
:101F8000A0018F9D500D1124559547955595479566
:101F900098016091FB038091FA030E94DE0C8B0C88
:101FA000F1E0EF1AF108D1F6A3949FCF87FFDFCFBE
:101FB00090916701890FDBCF81508093AB02BC8287
:101FC000A7CF90E001966091670170E00E94892F91
:101FD0008093AB028C839CCFEF92FF920F931F9361
:101FE000CF93DF93EC018C81811109C081E08C8358
:101FF0001092AA0292E09093620180936101809115
:1020000065019091660123E0829FF0011124E25066
:10201000FC4F891768F110E003E060916701161723
:1020200068F10E94600D809161012091AA02280F41
:102030002093AA0290916201980F90936201191661
:1020400054F4022E000C330B409167014150550BA4
:102050002417350734F0819580936101813009F4AC
:102060001C82DF91CF911F910F91FF90EF90089507
:102070001182108212828F5F3396CBCFE12EF12C2A
:1020800070E0C7010E94892F20916501820F482FBF
:1020900050E02091AA02022E000C330BE216F30648
:1020A000BCF020916201022E000C330B2E153F056F
:1020B0007CF0809F9001112422503C4F4091FC0302
:1020C0006091FB038091FA030E94DE0C1F5FA5CF95
:1020D000FA01EE0FFF1FE40FF51FE250FC4F1182D3
:1020E00010821282F3CF8F929F92AF92BF92CF92C3
:1020F000DF92EF92FF920F931F93CF93DF93EC0148
:102100004C81042F10E09801D8010E94CD2F9B0133
:10211000AC010E94E32F4B015C01E0E2F0E0E01B28
:10212000F10BA5E5B0E0AC019B010E94E32F6B0130
:102130007C019F01DF010E94C52F9B01AC010E9421
:10214000EE2F9B01AC01280D391D4A1D5B1DC701F7
:10215000B6010E949D2FF22E822F90E039E23F15AA
:1021600060F143E0249F9001112435952795122FAB
:10217000109500E085E5E82EEF18809167010817BB
:1021800058F10E94600D9C8181E0992319F09032F2
:1021900019F48FEF8093600180916001890F8C8327
:1021A000DF91CF911F910F91FF90EF90DF90CF9033
:1021B000BF90AF909F908F90089525E530E0B901D2
:1021C000681B790B9B01220F331F260F371F37FF28
:1021D000CCCF2F5F3F4FC9CF8E2D01FD8F2D20918A
:1021E0006501622F600F7727771F9B01220F331F36
:1021F000260F371F22503C4F412F6091FB030E9456
:10220000DE0C0F5FBACF0F931F93CF93DF93EC01D8
:1022100010E000E0909167019017110609F06CF44E
:102220000E94600D8C8190E00196817099278C83CB
:10223000DF91CF911F910F91089520916501A80121
:10224000420F511D9A01220F331F240F351F2250B8
:102250003C4F4C816091FB038091FA039695901757
:10226000110651F04CF0442349F04091FC030E94C8
:10227000DE0C0F5F1F4FCECF4423B9F340E0F7CF02
:102280008F929F92AF92BF92CF92DF92EF92FF9286
:102290000F931F93CF93DF93FC01B280948081E072
:1022A000848300E015E05BE4A52E88248394EE246B
:1022B000EA94F12C7BE4C72ED12C8091670108179A
:1022C00070F0DF91CF911F910F91FF90EF90DF9011
:1022D000CF90BF90AF909F908F900C94600DC02FC7
:1022E000D0E01C9FF0011D9FF00D1124E155FD4F22
:1022F00091101CC01382128220916501CE01820FC1
:10230000911D9C01220F331F280F391F22503C4F73
:102310001C9FF0011D9FF00D1124E155FD4F4281DE
:10232000618180810E94DE0C0F5FC7CF2381222351
:1023300079F12150238334818A2D821B311101C010
:10234000822F1C9FF0011D9FF00D1124E155FD4FC0
:102350009091FC03899FC0011124B6010E94752F42
:102360006283211104C0332311F01482A38222E07E
:102370002B1510F21C9FF0011D9FF00D1124E1554B
:10238000FD4F8091FA0380838091FB038183B4CF5A
:102390000E944230823091400CF0AECF82E08B152B
:1023A00030F50E944230B7010E94892F1C9FF00136
:1023B0001D9FF00D1124E155FD4F808322E02B1568
:1023C000C8F40E9442302091FB032695622F70E0F2
:1023D0000E94892F280F1C9FF0011D9FF00D1124D2
:1023E000E155FD4F21831282A382848285CF8091A3
:1023F000FA03DCCF2091FB03EECFEDE3F3E0118293
:102400008281846082830895E9EFF3E080818E7F8A
:10241000808360817181828193810E94FD0C0E9482
:10242000FD11EDE3F3E08281816082832FEF80E78D
:1024300092E0215080409040E1F700C000000C94F1
:10244000600D6091F903669570E04BE050E088E61E
:1024500091E00E945230892B19F481E080933E0371
:102460000E94D725909337038093360380913F03D2
:10247000846080933F0308959091F90390FF3AC0E0
:10248000917081112DC092609093F90380913F0368
:10249000816080933F03662351F06091F90370914E
:1024A000FA038091FB039091FC030E94FD0C609164
:1024B000F903669570E04BE050E088E691E00E94F9
:1024C0005230892BA1F00E94FD1181E080933903E5
:1024D0004091FC036091FB038091FA030C94110F6F
:1024E0008B3210F09465D0CF880F982BCDCF0E94FF
:1024F0002112EBCF0895682F9091F903969581E012
:10250000890F8B3208F081E00C943C1281E00C942E
:102510007B12682F9091F90396958FEF890F09F43C
:102520008AE20C943C1281E00C94891261E00C94D4
:102530003C12E9EFF3E080818160808386950C9402
:1025400096128091F90380FD0C9404120C94991258
:1025500060E00C943C1280913C03811133C00E94D6
:102560005724811104C00E94F9240E940F0D0E947B
:10257000F90C6093F9037093FA038093FB03909333
:10258000FC0380913F03836080933F036E7F61F47F
:102590000E940F0D0E94F90C6093F9037093FA03E7
:1025A0008093FB039093FC030E94E30C0E94FD11B7
:1025B0008091F90380FF03C086950E94A81281E0F4
:1025C00080933C030895EF92FF920F931F93CF9354
:1025D000DF9380913E03882309F468C080913D0316
:1025E000E091F903E695E81BE0933803823009F0A7
:1025F00064C0F0E0E358F84FE491CE2FD0E005EB53
:102600001DE080913903882389F0109239030E94DC
:10261000D7259E0120953095820F931F9093370305
:102620008093360310923B0310923A038091360355
:10263000909137030E94E3258C179D07B8F1809194
:10264000AE028823B1F01092AE028091AC0290915C
:10265000AD020E94E3258033954758F00E94D725AC
:102660009093AD028093AC0280913F038860809389
:102670003F03E0903A03F0903B03E0913603F09182
:102680003703CE0FDF1FD0933703C093360386E3A3
:1026900093E0F801099580913A0390913B03892BCF
:1026A00029F4EF2819F081E08093AE02DF91CF91F9
:1026B0001F910F91FF90EF900895863049F4F0E05C
:1026C000E658F84FE491CE2FD0E009EC1DE099CF09
:1026D000893051F4E695F0E0E958F84FE491CE2FB7
:1026E000D0E004E11FE08DCF8F3051F4E695F0E0AB
:1026F000EC58F84FE491CE2FD0E001E51FE081CFF8
:10270000853149F4F0E0EF58F84FE491CE2FD0E056
:102710000CEE1FE076CFC8E2D0E003E710E188318D
:1027200009F46FCF833239F4EFE6F7E0C591D49125
:1027300009ED1DE066CFC4EFD1E003E011E1843282
:1027400009F45FCFC0EDD7E00FEC1CE0853209F053
:1027500058CF8E2F63E00E945B2FE92FF0E0E45901
:10276000F84FE491CE2FD0E000E411E14ACFFA0116
:10277000811101C0FB010994CF93DF93C82FD62F9D
:102780000E94270D8C1740F00E94270D8D1720F412
:10279000DF91CF910C9486128C2FDF91CF910C9406
:1027A00096120F931F93CF938C01FB01C281CC2310
:1027B00009F465C00E94B5238272F801E25CFC4511
:1027C000E431F10538F4EC52FC4C0C94BF2F0E941C
:1027D000A112C0E08C2FCF911F910F91089543E972
:1027E00052E166E872E10E94B713F3CF46E852E186
:1027F00063E972E1F8CF42ED5EE065EC7EE0F3CF95
:1028000045EC5EE062ED7EE0EECF40EF5EE061EE33
:102810007EE0E9CF41EE5EE060EF7EE0E4CF4EE0A7
:102820005FE06FEF7EE0DFCF4FEF5EE06EE07FE0D6
:10283000DACF4AE55DE063E47DE0D5CF43E45DE0D7
:102840006AE57DE0D0CF81E00E949612C2CF65E0BC
:1028500082E00E94BC13BDCF68E086E0FACF6EE054
:1028600089E0F7CF64E18FE0F4CF67E185E1F1CF54
:1028700088E1EACF62E289E1ECCF83E2E5CFC1E013
:10288000A9CF539A4BB1477F5BB15860EFB7F8942B
:102890009B01220F331F260F371F280F391F2817C0
:1028A000390741F4EFBF8FE594E00197F1F700C0DD
:1028B00000000895DC016D91CD0178E05BB9000066
:1028C00000C067FF4BB9660F000000C000C000C029
:1028D0004BB900C07A9591F7E2CFAF92BF92CF92F9
:1028E000DF92EF92FF920F931F93CF93DF937C01C0
:1028F0005B01C42FD22FFC0182818823F9F0409321
:1029000042030E94D725909341038093400380E2C5
:102910008C0F883008F061C0C77081E001C0880F5B
:10292000CA95EAF7DF91CF911F910F91FF90EF9039
:10293000DF90CF90BF90AF900C944F1C109142034A
:10294000141340C080914003909141030E94E325FD
:102950006C01B701C5010E94FE20C816D90690F58A
:10296000C0E2CD0F1D17B9F080E2810F883040F42E
:10297000177081E001C0880F1A95EAF70E94561C73
:10298000C83048F481E09D2F977001C0880F9A9558
:10299000EAF70E944F1C802F0E943C1CC830E8F4CC
:1029A000D77081E001C0880FDA95EAF7DF91CF9107
:1029B0001F910F91FF90EF90DF90CF90BF90AF905D
:1029C0000C94561C80E28C0F883038F4C77081E07C
:1029D00001C0880FCA95EAF7E9CFDF91CF911F9127
:1029E0000F91FF90EF90DF90CF90BF90AF90089540
:1029F0000F939C01CB01233F4CE5340759F1A8F418
:102A0000283DFCE53F0701F1293D4CE53407D1F1B4
:102A1000273D3C4591F406E221EE41EE67ED7CE571
:102A20000E946D1480E00F910895253FFCE53F075B
:102A3000E9F0B0F0263F3C45F9F0FC0182818823A3
:102A400039F110924203EFCF07E225EE45EE68ED33
:102A50007CE5E6CF06E221EE40EE63EF7CE5E0CFD9
:102A600007E225EE44EE64EF7CE5DACF06E221EEE4
:102A700042EE65EF7CE5D4CF07E225EE46EE66EF49
:102A80007CE5CECF08E221E045EE69ED7CE5C8CFDC
:102A900081E0C9CFCF93DF93EC01FB0182818823D2
:102AA00009F419C1C230FCE5DF07C0F1C6319CE56D
:102AB000D90730F09E012A5F3C452930310570F579
:102AC0000E946F249093BB048093BA04C031ECE55C
:102AD000DE0709F4CFC008F05BC0C8308CE5D8072A
:102AE00009F4B6C088F5C430ECE5DE0709F4A8C0E7
:102AF000C0F4C2308CE5D80709F49CC08091BA04B8
:102B00008260C330DC4509F498C08091BA0490918A
:102B1000BB040E947D240E949A1E80E0DF91CF9129
:102B200008958091BA048061C630ECE5DE0709F4AF
:102B300084C08091BA048860C730DC4508F47DC049
:102B40008091BA04806279C0CC308CE5D80709F452
:102B500089C070F48091BA048C60CA30ECE5DE075D
:102B600009F46BC008F478C08091BA048E7F65C008
:102B7000CE308CE5D80709F479C08091BA048B7FF8
:102B8000CF30DC4508F459C08091BA048F7E55C01F
:102B9000CB3FECE5DE0709F457C030F5C3318CE5D7
:102BA000D80709F46FC078F4C131ECE5DE0709F409
:102BB00065C0C231DC4509F0A8CF0E949A1E809101
:102BC000BA048F773AC0C5318CE5D80709F462C0E2
:102BD00008F476C08091BB048160CA3FDC4509F0EF
:102BE00094CF8093BB0491CFCF3FFCE5DF0709F47E
:102BF0004DC088F48091BB048D7FCD3F9CE5D90703
:102C000081F38091BB048E7FCE3FDC4550F38091F1
:102C1000BB048360E6CFC130FDE5DF0709F459C08E
:102C200008F444C080E0C230DD4509F06ECF0E9458
:102C3000FB246BCF8091BA0481608093BA0465CF86
:102C40008091BA048460F9CF8091BB048260C9CFBF
:102C50008091BA048064F1CF0E949A1E8091BA04D8
:102C60008068EBCF8091BA048D7FE7CF8091BA0462
:102C7000877FE3CF8091BA048F7DDFCF8091BA0444
:102C80008F7BDBCF8091BA04837FD7CF8091BB0449
:102C90008C7FA7CF8091BA0482FB992790F921E01D
:102CA000922790FB82F990FB83F9C7CF8091BB04F8
:102CB000982F909591708E7F892B90FB81F991CF01
:102CC0000E949A1E9091BA04892F97FB87F9805829
:102CD000B4CF81E0ACCF81E021CFCF93DF93EB0184
:102CE00086319C4511F50E94B5239A81992399F06C
:102CF0008A7A91E009F490E090934303811109C02E
:102D000089E20E9490230E94F42380E0DF91CF911A
:102D1000089585E3F6CF80914303811104C089E2D1
:102D20000E949723F0CF85E3FBCF81E0EFCFCF93D5
:102D3000C82F88E70E943518882311F0C0E00BC027
:102D400080E00E9468188111F9CF8C2F0E946818CA
:102D5000C1E08111F3CF0E945C188C2FCF910895B0
:102D60001F93CF93DF93C82FD92F162F180FFE0173
:102D700084910E949716882319F021961C13F7CF8F
:102D8000DF91CF911F9108958EEA0C9497168FEAE8
:102D90000C9497160F931F93CF93DF93EC018C0144
:102DA0000C5A1F4FD801ED91FC91119760838D91C2
:102DB0009C91119701968D939C938C1B9D0B843550
:102DC0009105B9F4BE016B5E7F4F4FE350E0CE0139
:102DD0000E946C30CE01CF96F8019183808345E14B
:102DE00050E060E270E0DF91CF911F910F910C9461
:102DF0007E30DF91CF911F910F9108951F93CF9354
:102E0000DF93EC01FC01EA5AFF4F81E080836A30D6
:102E1000B1F43297808191818C1B9D0B65E170E04C
:102E20000E94892F182F153120F0DF91CF911F912B
:102E3000089560E2CE010E94CA161F5FF4CFCE0152
:102E4000DF91CF911F910C94CA160F931F93CF93CC
:102E5000DF938C01EB016991611105C0DF91CF9186
:102E60001F910F910895C8010E94FE16F4CFCF93D1
:102E7000DF93EC010E94251767E572E0CE01DF9138
:102E8000CF910C942517CF93DF93EC0144E550E0EC
:102E900060E270E00E947E30FE01EC5AFF4FD18369
:102EA000C083CA5ADF4F81E08883DF91CF910895B4
:102EB0007F928F929F92AF92BF92CF92DF92EF92CA
:102EC000FF920F931F93CF93DF938C010E94D7251E
:102ED00090934503809344030E94C71667E086E8F9
:102EE00099E00E94B016882399F188E70E9435186E
:102EF00081112EC080E40E946818811129C07801D8
:102F0000480184E5880E911C96E0792E5701D12C5A
:102F1000F501C1915F01C79DE0011124C455DF4F48
:102F200086E0C82EFE0184910E946818CA942196FA
:102F3000C110F8CFD394F5E1DF12EACF85E1E80EB6
:102F4000F11C8E149F0411F7F801EA5AFF4F10820A
:102F5000DF91CF911F910F91FF90EF90DF90CF9075
:102F6000BF90AF909F908F907F900C945C188FE4EF
:102F700094E00C9458171F93CF93DF93C82F0E94AF
:102F80002F186DE089EA99E00E94B016811106C001
:102F9000C0E08C2FDF91CF911F91089563E086EA06
:102FA00099E0C11102C083EA99E00E94B01688231B
:102FB00079F36FE084E999E00E94B016C82F882366
:102FC00039F38FE494E00E94431767E08DE899E0BD
:102FD0000E94B016882359F088E70E9435188111A5
:102FE00006C080E40E94681814E0882361F00E9403
:102FF0005C180E94B717CDCF80E00E946818D150AE
:10300000D9F7115011F0D0E8F7CF1092A504EFCF07
:103010000E9422098091A504811104C0809173014E
:10302000882321F00E94B717109273018091440306
:10303000909145030E94E32581369A4E10F00C943E
:10304000C416089581E080937301089583E390E0AE
:103050002091BC0027FD02C00197D1F7089510927E
:10306000B9008CE08093B8000895CF93C82F84EA0C
:103070008093BC000E9426188091B900887F883018
:1030800041F08091B900887F803119F081E0CF91C3
:103090000895C093BB0084E88093BC000E9426186A
:1030A0008091B900887F883129F08091B900887FAC
:1030B000803461F780E0EBCF84E98093BC0083E348
:1030C00090E02091BC0024FD02C00197D1F7089543
:1030D0008093BB0084E88093BC000E9426189091E6
:1030E000B900987F81E0983209F480E008951F923A
:1030F0001FB61F9211248F939F93EF93FF9380919C
:10310000B900887F8038C1F038F4882309F44BC0B7
:10311000803679F081E022C0883A11F0883BD1F7FF
:10312000E0914703F0E0EA55FB4F80818093BB00BC
:1031300031C010924603EECF80914603811122C028
:103140008091BB0080934703809147038031C0F09A
:103150001092470380E091E0909346039091BC0069
:103160008295880F880F807C892B85688093BC00AE
:10317000FF91EF919F918F911F901FBE1F90189507
:1031800081E0E9CFE0914703F0E08091BB00EA5590
:10319000FB4F80838091470390E001968F709927C1
:1031A00080934703B7CF1092BC00B4CF8EE14A9B07
:1031B00002C08150E1F74A9BFECF08955A9880E201
:1031C0008A95F1F75A9A0895FC013BE03A95F1F798
:1031D00020E090E080E031E040E14A95F1F7880F8F
:1031E0004A9B02C08160232742E04A95F1F7000024
:1031F00040E14A95F1F79F5F6913EECF90E19A9510
:10320000F1F799B132E03A95F1F7000040E14A95C3
:10321000F1F792FB992790F992272081920F9083E2
:103220000895EF92FF920F931F93CF93DF930F9226
:10323000CDB7DEB719828C017C01E60EF11C0E15AC
:103240001F0561F481E09981911180E00F90DF9179
:10325000CF911F910F91FF90EF9008950E94D61883
:1032600068E0CE0101960E94E418F80181938F0175
:10327000E6CF90934A038093490360934803529AA0
:103280005A9A089590934A038093490360934803A0
:1032900052985A9AEA9AE9E6F0E080818F7C80831E
:1032A00008956150770B91E001C0990F6A95EAF794
:1032B00020E031E0911108C0222391F05A9A80E277
:1032C0008A95F1F75A980895492F482339F05A9A68
:1032D000232740E24A95F1F79695ECCF5A98F9CF1B
:1032E0005A98EDCFFF920F931F93CF93DF93EC018A
:1032F0008C01060F111DC017D10731F4DF91CF915A
:103300001F910F91FF900895F9900E94DE1868E0D8
:103310008F2D0E945119EFCF1F920F920FB60F926F
:1033200011240F931F932F933F934F935F936F93AA
:103330007F938F939F93AF93BF93EF93FF93CF931D
:10334000DF930F92CDB7DEB719820E94D61867E0DF
:10335000CE0101960E94E418082F06950695069561
:10336000982F92959570202F2570920F292F2370FA
:10337000969596958770920F891344C08981811123
:1033800041C0809148038017E8F120E12A95F1F7C8
:103390005A9A529A82E08A95F1F700C0A8E00A9FF3
:1033A000C00111240091490310914A03080F191F0D
:1033B0005A98F8016581662321F0868197810E94E1
:1033C00072190E94DE18F0E1FA95F1F75A985298B6
:1033D0005A9A20E12A95F1F7D80112966C9112972A
:1033E000662331F113968D919C910E941119D80199
:1033F000ED91FC91882311F088E001C082E0808388
:103400000E94D6180F90DF91CF91FF91EF91BF915D
:10341000AF919F918F917F916F915F914F913F916C
:103420002F911F910F910F900FBE0F901F90189525
:10343000ED91FC91E1CF0F931F93CF93DF932091F8
:103440004803281719060CF471C08C0193E0000F93
:10345000111F9A95E1F7C0914903D0914A03C00F1B
:10346000D11FF894529A5A9825E02A95F1F7000056
:10347000982F969595708570980F892F83709695E3
:103480009695980F092B0E94DE1800C067E0802FE8
:103490000E94511980E18A95F1F752985A9A4A9BF5
:1034A00017C087E090E04A9915C06D81662321F12D
:1034B0008E819F810E94111981111EC0529A5A9AC1
:1034C000E881F98182E08083789482E090E00DC009
:1034D00000C0E5CF019771F4529A5A9AE881F981B8
:1034E00081E08083789481E090E0DF91CF911F911B
:1034F0000F91089500C0D7CF0E94D61820E22A95D8
:10350000F1F75A98529A80E18A95F1F76A81662319
:1035100021F08B819C810E9472190E94DE18E88143
:10352000F9811082789490E080E0DFCF84E090E031
:10353000DCCF9093500380934F030895E0914F03A5
:10354000F0915003309721F00190F081E02D099423
:1035500080E00895E0914F03F0915003309721F0FF
:103560000280F381E02D09940895E0914F03F091DA
:103570005003309739F022E0DC012C930480F58170
:10358000E02D0994089520914D0330914E032817A2
:10359000390771F090934E0380934D03E0914F03F0
:1035A000F0915003309721F00680F781E02D0994C7
:1035B000089520914B0330914C032817390771F07F
:1035C00090934C0380934B03E0914F03F091500391
:1035D000309721F00084F185E02D0994089585B796
:1035E000806885BF85B7806885BF08950895089570
:1035F0000C94F61A08950C94FA1A0E94EF1A0E947D
:10360000F71A0C94F81A81E008950C94031B0E9499
:10361000CE250E94F5050E9427260E94AB120C942D
:10362000FB1ABF92CF92DF92EF92FF920F931F93FC
:10363000CF93DF93CDB7DEB72A970FB6F894DEBFEE
:103640000FBECDBF0E9411070E94051B882309F4FD
:1036500061C082E5C82E83E0D82E10E000E0B02ED5
:10366000802F0E948507E82EF601F1906F01F81671
:1036700009F44AC08091C60381FD0E948B079F2DEB
:103680009E2580E0FF24F394292F2F21C1F18E8302
:10369000BF82EF2081E009F480E088870E94D7256F
:1036A0008160782F9A8789874E815F8168858A85B6
:1036B0000E94AB1BF801EE5AFC4F8081F826F08285
:1036C0000E94E3120E94D2270E949E1A90915103F9
:1036D000891789F10E949E1A809351032A960FB68A
:1036E000F894DEBF0FBECDBFDF91CF911F910F9138
:1036F000FF90EF90DF90CF90BF900C94170A8F5FF0
:10370000FF0C863009F0C0CF0F5F1F4F0830110546
:1037100009F0A5CF8FEF89838A831B820E94D7256A
:103720008160782F9D838C8349815A816B818D8143
:103730000E94AB1BC5CF2A960FB6F894DEBF0FBE12
:10374000CDBFDF91CF911F910F91FF90EF90DF9050
:10375000CF90BF900895CF93DF93CDB7DEB72B976F
:103760000FB6F894DEBF0FBECDBF4F835887698771
:103770007A878B871E821D8285E0FE013796DE01E7
:10378000119601900D928A95E1F749815A816B81DA
:103790007C818D819E812B960FB6F894DEBF0FBE83
:1037A000CDBFDF91CF910C940121FC0180819181EB
:1037B0000C946223CF93C82F882369F18CEF8C0F70
:1037C000813AA0F46C2F80917401909175010E9450
:1037D0001225882329F08C2F0E9497230E94F4231E
:1037E0008C2F0E949023CF910C94F42380E28C0FB5
:1037F000883048F4C77081E001C0880FCA95EAF7A5
:103800000E94B823F0CFC03F30F08C2F0E94CC260E
:10381000CF910C94B727CF910895882361F19CEF45
:10382000980F913A20F40E9497230C94F42390E28D
:10383000980F983050F4877091E001C0990F8A95E5
:10384000EAF7892F0E94BE23F0CF9BE5980F9330B3
:1038500020F490E080E00C94C31A98E5980F97311B
:1038600020F490E080E00C94D91A803F20F00E9470
:1038700034270C94B7270895CF93C82F0E94DA1BE2
:10388000C93349F42FEF87EE93E0215080409040F8
:10389000E1F700C000008C2FCF910C940D1C882301
:1038A00021F00E94B8230C94F4230895882321F07A
:1038B0000E94BE230C94F4230895BF92CF92DF920E
:1038C000EF92FF920F931F93CF93DF936C01D62F4C
:1038D000C72FFC01058102950F70128111110E9402
:1038E000D5230E94AE23E82E882391F01123E9F01E
:1038F0008C2F807F803421F080E28D0F8830A8F0FB
:1039000082E00E943F240E94AE2391E0E82EE92647
:10391000BC2EB2949FE0B922FBE0FB15A8F1EB2D81
:10392000F0E0E851FC4C0C94BF2FE12CF1CF0C2FB0
:103930000F70C07F11F00295007F1123A9F00023C2
:1039400059F080E28D0F883010F0D11109C0802F1E
:103950000E94B8230E94F4238D2F0E94DA1B14C00A
:10396000802F0E94C823F6CF8D2F0E940D1C0023AC
:1039700059F080E28D0F883010F0D1112CC0802FCB
:103980000E94BE230E94F4232B2D2850330B243099
:10399000310520F40E949E1A0E94170AEE2009F4B5
:1039A00072C10E94AA2380FD6EC1F60112820E949C
:1039B000A4230E942D22C6010E94641E0E94A423FB
:1039C000DF91CF911F910F91FF90EF90DF90CF90FB
:1039D000BF900C944E22802F0E94CE23D3CF2C2F49
:1039E0002F70F22EC07FC03219F0F29480EFF822CF
:1039F000DD2369F0D13049F1112391F1002351F118
:103A0000F601858180FFA8CF8F70858323C01123A5
:103A100081F0011106C00E94DB238F290E944F1CF8
:103A2000B3CF0130C1F70E94DB238F290E94E1232D
:103A3000ABCF011106C00E94EA238F2D0E94561CB5
:103A4000A3CF013009F4A0CFF6CF112329F006301F
:103A500008F09ACF8F2DE2CF053008F095CFEDCF4B
:103A6000002359F3D93349F4FFEF27EE33E0F15047
:103A700020403040E1F700C000008D2F0E940D1C57
:103A800083CF8D2F112329F00E94CC260E94B727C7
:103A90007BCF0E943427FACF8C2F837009F041C06E
:103AA000111172CF4D2F429546954770440F440F28
:103AB0000D2F0F7010E030E020E0042E04C0000F46
:103AC000111F221F331F0A94D2F760E070E0CB0170
:103AD000D4FF0FC06FE070E080E090E004C0660F9C
:103AE000771F881F991F4A95D2F76095709580952A
:103AF0009095C695C695C370602B712B822B932B26
:103B0000C23049F058F4C13019F00E94BF213CCFB7
:103B10000E94AD2139CF0E94D12136CF0E94AB2126
:103B200033CF8695112311F08C2F8170882309F4EF
:103B30002BCF4D2F429546954770440F440F0D2FC4
:103B40000F7010E030E020E0042E04C0000F111FC1
:103B5000221F331F0A94D2F760E070E0CB01D4FF3C
:103B60000FC06FE070E080E090E004C0660F771F48
:103B7000881F991F4A95D2F760957095809590950A
:103B8000C695C695C370602B712B822B932BC230C8
:103B900049F058F4C13019F00E94A422F5CE0E94D9
:103BA0009222F2CE0E94B622EFCE0E94E721ECCE06
:103BB000CF70112329F08C2F0E942D228D2F2ECF14
:103BC0008D2F0E94561C8C2F0E944E22DDCED23F9C
:103BD00089F160F4D03FC9F0D13F29F1112309F4F4
:103BE00042C00111B9CE8C2F8F7121C0D33F39F162
:103BF000D43FA1F7112369F1CF718C2F0E942D22A0
:103C000063E08C2F0E942A24BFCE112341F005309F
:103C100008F0BACE8C2F8F710E947122B5CE06307B
:103C200008F0B2CEF7CF8C2F8F71112369F20E946A
:103C30002D22AACE8C2F8F711123C9F3C5CF11234A
:103C400029F08C2F8F710E9418229ECE0E94F321A2
:103C50009BCE81E00E943F24023008F495CE82E0A2
:103C60000E943F2491CE002359F0D93309F005CFAB
:103C70008FEF97EEE3E081509040E040E1F7FBCE1C
:103C80008C2F8F71A1CFDF91CF911F910F91FF905A
:103C9000EF90DF90CF90BF9008950F931F93CF9335
:103CA000DF93EC01688179818A810E946C238C0109
:103CB0000E94C8220E94AA21B801CE01DF91CF91B3
:103CC0001F910F910C945D1CCF93DF93EC018B81BE
:103CD0009C81892B29F08881998189238F3F59F410
:103CE000DF91CF910895CE010E944D1ECE01DF914C
:103CF000CF910C94FB09CE010E942F0A8111F3CFC2
:103D00000E94AE23882361F38A81882349F382E0ED
:103D1000DF91CF910C943F240E94D5230E94D82399
:103D20000E94F4230E94DE280C94B7270E949E2351
:103D30000C948C1E0E94C5230C94961EE92FE295CC
:103D4000EF70E250EE3070F4F0E0EC50FC4C0C946C
:103D5000BF2F803F19F020F4883E20F481E00895C1
:103D6000843FE1F380E00895883EC0F3813FD1F7BE
:103D7000F5CF93FB882780F908950E9462230C9465
:103D80009E1ECF93DF9300D000D00F92CDB7DEB749
:103D90000F900F900F900F900F90DF91CF9108959B
:103DA000CF93DF9300D000D000D0CDB7DEB72696FA
:103DB0000FB6F894DEBF0FBECDBFDF91CF9108954F
:103DC0001F93CF93DF93C0915B0316E080915C0358
:103DD0008C1304C0DF91CF911F910895D0E01C9FF8
:103DE000F0011D9FF00D1124E35AFC4F40815181D9
:103DF00062817381848195810E94D01E2196C77053
:103E0000E5CF40918D0350918E0360918F037091A7
:103E1000900380919103909192030C94D01E1F9374
:103E2000CF93DF9380919203807FA9F480918F03D9
:103E3000882389F080915B03C0915C0360918D03BE
:103E400070918E03A0919003B0919103D62FD72348
:103E500016E0C81304C0DF91CF911F91089590E040
:103E6000109711F0DF3F19F401968770F2CF189F79
:103E70009001199F300D1124F901E35AFC4F418143
:103E80004713F2CF40814613EFCF42814111ECCF6F
:103E9000438154814A1B5B0B4436510528F78091BE
:103EA00092038F70806180939203F901EE59FC4F69
:103EB00080818F70806180838DE893E00E94641E12
:103EC000DF91CF911F910C94E01EAF92BF92CF92E1
:103ED000DF92EF92FF920F931F93CF93DF93CDB7B3
:103EE000DEB761970FB6F894DEBF0FBECDBF8C0171
:103EF00085E0F801DE011D9601900D928A95E1F7AB
:103F0000F80140815181E2808DE8C82E83E0D82EEF
:103F100060919003709191036115710509F44FC18F
:103F200090918D0320918E03892F82238F3F09F476
:103F300046C1A380B480F0908F03F501E61BF70B18
:103F4000FF2009F40AC180919203382F307FE436B4
:103F5000F10508F0C0C0311179C0FE2C251323C033
:103F6000941321C0E1101FC08F7080618093920371
:103F70000E94011FC6010E94641E80919203F801F5
:103F800085838F2D61960FB6F894DEBF0FBECDBF2F
:103F9000DF91CF911F910F91FF90EF90DF90CF9025
:103FA000BF90AF900895AB2829F0842F85238F3FD1
:103FB00009F021C180E0F82FF170DF2E80FF3CC0B6
:103FC00080915B0320915C0336E0821315C04D871E
:103FD0005E878D859E850E946223292F22952F70F2
:103FE0002230F0F0243018F59F70F1F0F80195813F
:103FF000907FD1F4D12C1EC090E0389FF001399F02
:10400000F00D1124E35AFC4F6181651306C06081F5
:10401000641303C062816E110FC001968770D5CF03
:104020009F7011F0882331F3805E883018F3C80147
:104030000E94641EFD2CA5CFEE2009F4A2CF809132
:104040009203816080939203F12C9BCF251314C0BF
:10405000941312C0E11010C0F8018583C8010E94BA
:10406000641E86E0F801ADE8B3E001900D928A95F8
:10407000E1F70E94011F85CF4D875E878D859E8564
:104080000E94BD1E882319F1EE2009F18091920350
:10409000803270F020918D0330918E0338872F830A
:1040A0001986BB86AA868C87CE0107960E94641E5D
:1040B00086E0F801ADE8B3E001900D928A95E1F752
:1040C0000E940F1F0E94011FFF24F3945ACFC801C2
:1040D0000E94641EF9CF311113C07A2DB98AA88AC3
:1040E0006E2D89890E94C11E8DE893E00E94641E96
:1040F00086E0F60111928A95E9F70E94011FA4CF8C
:1041000025130FC094130DC0E1100BC0F801858377
:10411000C8010E94641E86E0F60111928A95E9F7B3
:1041200030CF4D875E878D859E850E94BD1E88237A
:1041300071F2EE2061F280919203803208F4B8CFE0
:1041400020918D0330918E033A8329831B82BD8297
:10415000AC828E83CE010196A9CFE436F10510F52D
:10416000FE2CEE2009F4B3CF25130BC0941309C025
:1041700086E0F801ADE8B3E001900D928A95E1F791
:1041800000CF4D875E878D859E850E94BD1E811163
:104190008FCF80919203816080939203C8010E9427
:1041A000641EEFCE7A2DB98AA88A6E2D89890E9465
:1041B000C11E86E0F60111928A95E9F75ACFEE20EA
:1041C00009F485CF4D875E878D859E850E94BD1E33
:1041D000F82E882309F47BCF86E0F801ADE8B3E040
:1041E00001900D928A95E1F78DE893E00E94D51B2E
:1041F0000E940F1F3ECF81E08E25DDCE84E690E049
:1042000008951F93CF93DF93CDB7DEB72C970FB6EA
:10421000F894DEBF0FBECDBF4F83588769877A877A
:104220008B879C87CE0107960E94651F882369F0C3
:104230008A859B85892B39F04F815885842F85236A
:104240008F3F09F071C016E05FC086E0FE0137962F
:10425000DE01119601900D928A95E1F78A859B8582
:10426000892B89F38F81988589238F3F61F3209172
:104270005C0330E0C90101968770992740915B0388
:104280004817190671F40E949A1E10925C0310924E
:104290005B0386E0EDE8F3E0DF011D928A95E9F724
:1042A000D2CF96E0929FD001939FB00D1124A35AD4
:1042B000BC4FFE01319601900D929A95E1F78093E3
:1042C0005C030E94E01EBFCF819FC0011124835A6E
:1042D0009C4F0E94651F8823E9F0E0915B031E9FBD
:1042E000F0011124E35AFC4F4081518162817381B6
:1042F000848195810E94D01E80915B0390E001969D
:104300008770992780935B0380915B0390915C0396
:104310008913DACF2C960FB6F894DEBF0FBECDBF4F
:10432000DF91CF911F91089569857A858B859C8552
:104330000E94D01E88CF08950C949B210E949C213E
:104340006093B5037093B6038093B7039093B8035B
:104350000C948C1E08950C949E210F931F93009132
:10436000B5031091B6032091B7033091B803602BC9
:10437000712B822B932B1F910F910C949E210F93E5
:104380001F930091B5031091B6032091B7033091AC
:10439000B80360237123822393231F910F910C9400
:1043A0009E210F931F930091B5031091B6032091A6
:1043B000B7033091B80360277127822793271F9195
:1043C0000F910C949E210C949B210C94E3210E944C
:1043D000E5216093B1037093B2038093B30390938C
:1043E000B4030C948C1E60E070E0CB010C94E721C8
:1043F000611571058105910529F481E0442361F07F
:1044000080E00895DC01CB0104C0B695A79597958F
:1044100087954A95D2F781700895482F6091B1032E
:104420007091B2038091B3039091B4030C94F8217E
:104430000F931F9341E050E060E070E08A019B0120
:1044400004C0000F111F221F331F8A95D2F7C90124
:10445000B8011F910F910C94E7210F931F9341E036
:1044600050E060E070E004C0440F551F661F771FE6
:104470008A95D2F78091B1039091B203A091B303D2
:10448000B091B4038A019B01082B192B2A2B3B2BDB
:10449000C901B8011F910F910C94E7210F931F934D
:1044A00041E050E060E070E004C0440F551F661F1B
:1044B000771F8A95D2F7CB01BA01609570958095E8
:1044C00090950091B1031091B2032091B303309104
:1044D000B40360237123822393231F910F910C94C3
:1044E000E7210F931F9341E050E060E070E004C0CB
:1044F000440F551F661F771F8A95D2F78091B1032D
:104500009091B203A091B303B091B4038A019B01CF
:10451000082719272A273B27C901B8011F910F91A6
:104520000C94E7210F931F930091B1031091B203F4
:104530002091B3033091B403602B712B822B932B0A
:104540001F910F910C94E7210F931F930091B103DA
:104550001091B2032091B3033091B403602371230F
:10456000822393231F910F910C94E7210F931F93A4
:104570000091B1031091B2032091B3033091B403C1
:1045800060277127822793271F910F910C94E721B1
:104590000895E92FEE0FE90FEE0F8E0F982F977009
:1045A00041E001C0440F9A95EAF786958695869575
:1045B00095E0899FF0011124ED56FC4F30E020E09A
:1045C00070E05191DF011197CB01022E02C0969548
:1045D00087950A94E2F78170819585278423852742
:1045E0008C932F5F3F4F2530310559F70895E92F00
:1045F000EE0FE90FEE0F8E0F982F97708695869528
:10460000869525E0829FF0011124ED56FC4F50E085
:1046100040E080E0219130E0092E02C036952795D8
:104620000A94E2F721703327042E01C0220F0A9466
:10463000EAF7822B4F5F5F4F4530510559F70895D8
:10464000BF92CF92DF92EF92FF920F931F93CF937F
:10465000DF938C01C090B103D090B203E090B3031C
:10466000F090B4038091B5039091B603A091B70385
:10467000B091B803C82AD92AEA2AFB2ACFE1D0E0B0
:10468000BC2ED701C6010C2E04C0B695A7959795F0
:1046900087950A94D2F780FD0EC0219788F7B12C38
:1046A0008B2DDF91CF911F910F91FF90EF90DF90B5
:1046B000CF90BF900895B8018C2F0E94850A019772
:1046C00061F3EECFCF93DF93EC010E942023BE0174
:1046D000DF91CF910C94850A1F93CF93DF93EB0169
:1046E00090915A03992331F0CB01DF91CF911F9123
:1046F0000C946223882379F0CB010E942023182F89
:10470000682FCE010E94C922BE01812FDF91CF9177
:104710001F910C94850ACB010E94F722182FF4CF29
:10472000682F80917401909175010C944825682F31
:1047300080917401909175010C944A2580917401C7
:10474000909175010C944C258091B90385958595C0
:10475000859508958091B903877008959091B90364
:10476000977081E009F480E008958091C503089571
:104770009091C503892B8093C503089580959091EE
:10478000C50398239093C50308951092C503089517
:104790009091C403892B8093C403089580959091D0
:1047A000C40398239093C40308951092C4030895FA
:1047B0001092C30308958091BA03089508950C944C
:1047C000DE239091BA03981721F08093BA030C94DA
:1047D000DF2308958091BA03882329F01092BA0349
:1047E00080E00C94DF230895E0917401F09175014D
:1047F0008091C5038083E0917401F09175018081FF
:104800009091C403892B8083E0917401F09175012C
:1048100080819091C303892B80839091BA0399235F
:1048200081F0E0917401F09175018081892B808382
:1048300080917401909175010E94002581110E9460
:10484000EA2380917401909175010C94AA1A08953D
:104850000C94272498E0899F90011124622B609387
:10486000B9030E942D228091B90385958595859580
:104870000C9428241092B90380E00C942824909181
:10488000B903809589238093B903282F277071F489
:10489000282F082E000C330B9217130639F085953C
:1048A000859585950E944E220C943A24089590E0B7
:1048B00080E00E94423321E08C3E9E4F09F020E0D0
:1048C000822F089582E090E00C94343383E090E0EE
:1048D0000C943433682F83E090E00C944833CF93EA
:1048E00084E090E00E943433C82F81E290E00E947F
:1048F0003433982F8C2FCF910895CF93C92F682FE1
:1049000084E090E00E9448336C2F81E290E0CF91E8
:104910000C944833AB01BC018FE090E00C945A3307
:10492000AB01BC0183E190E00C945A3360E070E08D
:10493000CB010C94902460E070E0CB010E948A24AB
:104940000C9496246CEE7EEF90E080E00E9466333B
:1049500060E082E090E00E94483360E083E090E015
:104960000E9448331092B5031092B6031092B70319
:104970001092B80360E084E090E00E94483360E069
:1049800081E290E00E94483360E085E090E00E9480
:10499000483360E086E090E00E9448336FEF87E0A4
:1049A00090E00E94483340E050E0BA0188E090E097
:1049B0000E945A3360E08DE090E00E94483340E06E
:1049C00050E0BA0188E190E00E945A3360E087E14C
:1049D00090E00E94483340E050E0BA018CE190E062
:1049E0000E945A3360E080E290E00E9448330C94C9
:1049F0009B240C94A224682F8EE090E00C94483302
:104A00009C012E5F3F4FAC01485F5F4F80E0241751
:104A1000350709F40895F90191919F019923B9F39C
:104A20008F5FF5CF662349F0FC01329608962191FD
:104A3000261729F0E817F907D1F780E0089581E0FB
:104A400008959C01FC0132969FEF80E0419146174A
:104A500051F09F3F19F4411101C0982F8F5F8630AC
:104A6000A9F79F3F09F40895290F311D97FD3A9545
:104A7000F90162830895FC0132960896219126136C
:104A800003C0DF0111971C92E817F907B9F70895E1
:104A90000C9421250C943B25029626E0FC011192F2
:104AA0002A95E9F70895089508950C9454250E94D5
:104AB00055258091C004843049F11092C70388E1E4
:104AC00090E020E40FB6F894A895809360000FBEA4
:104AD0002093600080E00E94170A0E94552583B74A
:104AE000817F846083BF83B7816083BF789488951A
:104AF00083B78E7F83BF0FB6F894A895809160002E
:104B0000886180936000109260000FBE0895089540
:104B1000CF930E9453250E9411070E948725C0E071
:104B20008C2F0E948507811105C0CF5FC830C1F767
:104B3000CF91089581E0FCCF08950C949C250E94AC
:104B40009A1E0E949E1A0E94170A0C949D251F927D
:104B50001FB61F9211248F939F93AF93BF938091A1
:104B6000C703811113C08091B6049091B704A0913E
:104B7000B804B091B9044196A11DB11D8093B6044B
:104B80009093B704A093B804B093B904BF91AF91C8
:104B90009F918F911F901FBE1F90189582E084BD3A
:104BA00093E095BD9AEF97BD80936E0008952FB75F
:104BB000F8948091B6049091B704A091B804B09194
:104BC000B9042FBF08959C014FB7F8948091B604A3
:104BD0009091B704A091B804B091B9044FBF821B63
:104BE000930B089578941F921FB61F9211248F93F0
:104BF0009F93AF93BF938091B6049091B704A09117
:104C0000B804B091B9040196A11DB11D8093B604FA
:104C10009093B704A093B804B093B904BF91AF9137
:104C20009F918F911F901FBE1F90189587E797E760
:104C3000909301088093000888E19AE00FB6F894F9
:104C4000A895809360000FBE90936000FFCF0E94F4
:104C50005724811102C00E94F9240E94622480938B
:104C6000C6030E946F249093BB048093BA040E94F1
:104C70006624682F70E090E080E00E94AB21609194
:104C8000B1037091B2038091B3039091B4030C947B
:104C9000E5218091CE0380FF12C060917B0185E009
:104CA000689FB00111247595679575956795603873
:104CB0007105A8F561157105A1F1862F089581FF91
:104CC00009C060917B0185E0689FB0011124759552
:104CD0006795EDCF60917B0182FD0AC08091CD0385
:104CE0008823D1F090917A0160917B01891728F097
:104CF00085E0689FB0011124DACF869FB0011124AE
:104D000085E0869F9001879F300D1124692F70E008
:104D1000C9010E94892FCBCF65E070E0CECF8FE72D
:104D2000089581E008958091CE0380FF0CC06091CA
:104D3000770170E0759567957595679561157105B3
:104D400049F1862F089581FF06C06091770170E0D8
:104D500075956795F3CF6091770182FD0BC09091B7
:104D6000CC039923A1F06091760180917701961789
:104D700038F0682F70E06038710500F38FE7089510
:104D8000899FC001112470E00E94892FF4CF61E057
:104D900070E0D7CF81E00895803F31F40E9449262A
:104DA00081958093D2030895813F19F40E9449268A
:104DB000F8CF823F31F40E94492681958093D10338
:104DC0000895833F19F40E944926F8CF893F29F4BA
:104DD0000E9493268093D30308958A3F21F40E9472
:104DE00093268195F7CF8B3F31F40E9493268195CE
:104DF0008093D40308958C3F19F40E949326F8CF32
:104E0000843F31F48091D00381608093D003089572
:104E1000853F21F48091D0038260F7CF863F21F453
:104E20008091D0038460F1CF873F21F48091D0033B
:104E30008860EBCF883F21F48091D0038061E5CF7B
:104E40008D3F31F48091CE0381608093CE0308952D
:104E50008E3F21F48091CE038260F7CF8F3FB9F768
:104E60008091CE038460F1CF9091D103803F59F4BB
:104E70008091D20387FF0DC01092D20391110BC015
:104E80001092CD0308C0813F81F48091D20318169F
:104E90009CF3992381F08091D3039091D403892BC3
:104EA00009F064C01092CC030895823F49F497FF43
:104EB000F0CF1092D1038091D2038111ECCFE0CFDB
:104EC000833F19F41916ACF3E4CF2091D303893F43
:104ED00029F41216F4F61092D303DBCF8A3F19F4AB
:104EE00027FFD7CFF8CF2091D4038B3F29F427FF9A
:104EF000D0CF1092D403CDCF8C3F19F41216CCF33F
:104F0000C8CF843F31F48091D0038E7F8093D0034B
:104F1000C0CF853F21F48091D0038D7FF7CF863FAE
:104F200021F48091D0038B7FF1CF873F21F48091D2
:104F3000D003877FEBCF883F21F48091D0038F7E11
:104F4000E5CF8D3F31F48091CE038E7F8093CE03E9
:104F5000A0CF8E3F21F48091CE038D7FF7CF8F3F7E
:104F600009F097CF8091CE038B7FF0CF08950E94F8
:104F7000D7259C019091D1038091D203982B21F0E9
:104F80003093CB032093CA039091D3038091D40331
:104F9000982B21F03093C9032093C8038FEC93E042
:104FA0000C94B51AEF92FF920F931F93CF93DF9358
:104FB00000D000D000D0CDB7DEB786E0EFECF3E054
:104FC000DE01119601900D928A95E1F7E090D103F0
:104FD000F090D2030091D3031091D4031092D10327
:104FE0001092D2031092D3031092D4038E2D8F29E6
:104FF00091F08091CA039091CB030E94E325AC010C
:105000009091CD03992309F43FC080917C018417CE
:10501000150608F447C0802F812B91F08091C803BA
:105020009091C9030E94E325AC019091CC03992390
:1050300009F477C0809178018417150608F47FC0C1
:105040008091D1039091D203892B9091D303892B26
:105050009091D403892B11F00E94B72786E0FE01BE
:105060003196AFECB3E001900D928A95E1F7269668
:105070000FB6F894DEBF0FBECDBFDF91CF911F9169
:105080000F91FF90EF90089520917D018AE0289F75
:10509000900111242417350708F0BDCF9F5F90932E
:1050A000CD0302C09F3FD1F7EE2059F00E94492660
:1050B0009FEF1E140CF491E0899F802D11248093A2
:1050C000D103FF2059F00E9449269FEF1F140CF4D2
:1050D00091E0899F802D11248093D2033091D103D8
:1050E000332309F498CF2091D203222309F493CFDC
:1050F00045EB3403C0011124992359F09093D10357
:1051000045EB240390011124332339F03093D2036B
:1051100082CF81E08093D103F3CF81E08093D203EB
:105120007ACF209179018AE0289F900111242417D9
:10513000350708F085CF9F5F9093CC0302C09F3F57
:10514000D1F7002359F00E9493269FEF10160CF41C
:1051500091E0899F802D11248093D303112359F06E
:105160000E9493269FEF11160CF491E0899F802DE9
:1051700011248093D4033091D303332309F460CFF7
:105180002091D403222309F45BCF45EB3403C00103
:105190001124992359F09093D30345EB24039001F4
:1051A0001124332339F03093D4034ACF81E0809324
:1051B000D303F3CF81E08093D40342CF86E0EFECBA
:1051C000F3E0DF011D928A95E9F71092CD0310926A
:1051D000CC031092CE0308958091DD0308950895C5
:1051E0009C0182E08093E9009FEF8091E80091505C
:1051F00085FD06C085ED8A95F1F700009111F5CF88
:105200008091E80085FF0CC050E040E066E070E06F
:10521000C9010E94CA2A8091E8008E778093E80035
:105220000895CF93DF93EC0181E08093E9008FEF45
:105230009091E800815095FD06C095ED9A95F1F7A3
:1052400000008111F5CF8091E80085FF14C050E087
:1052500040E068E070E0CE010E94CA2A8091E80038
:105260008E778093E80088E0FE01A5EDB3E0019021
:105270000D928A95E1F7DF91CF910895089580917D
:10528000BF04811109C00E945A2C0E94B72C809142
:10529000E20084608093E20008951092BF040895B4
:1052A000089508950C949F2542E061EC81E00E94EE
:1052B000D62B42E261EC82E00C94D62B8091C204A2
:1052C000833009F45FC030F48130C1F1823009F4D9
:1052D0009BC008958A3009F487C08B3009F46DC0F3
:1052E000893009F04EC08091C104813209F049C073
:1052F0008091C5049091C604029708F042C0809145
:10530000E800877F8093E8008091E80082FF35C045
:105310009091F3008091F200029729F48091F100BE
:105320008B7F813021F48091F1008093DD038091A7
:10533000E8008B778093E8000C940A2C8091C104DC
:10534000813AF9F48091E800877F8093E8008091AA
:10535000C5049091C604892B61F468E085ED93E063
:1053600070E00E94192B8091E8008B778093E80011
:10537000089560E090E080E0F3CF8091C004811157
:10538000C3CF08958091C104813AD9F78091C504B3
:105390009091C604892BA9F78091E800877F8093BC
:1053A000E8008091E80080FFFCCF80918801809325
:1053B000F1008091E8008E77BDCF8091C1048132E9
:1053C00001F78091C5049091C604892BD1F6809194
:1053D000E800877F8093E8000E940A2C8091C30434
:1053E000809388010C949A1E8091C104813249F601
:1053F0008091E800877F8093E8000E940A2C8091CA
:10540000C4048093DE0308958091C104813A09F0B9
:10541000B8CF8091E800877F8093E8008091E80012
:1054200080FFFCCF8091DE03C2CF84B7877F84BF2B
:105430000FB6F894A8958091600088618093600011
:10544000109260000FBE80E890E00FB6F894809351
:105450006100909361000FBE0E94FD1A0E945A2CB9
:105460000E94B72C8091E20084608093E2007894DF
:105470000E94402F0E94071B8EE791E00E94991A1C
:105480008091C004853019F00E94111BF9CF0E9451
:1054900057258091BE04882399F30E94882588238C
:1054A00079F30E94B42AECCF0C94562A292F332783
:1054B0002330310519F168F42130310509F44AC06F
:1054C0002230310509F44BC090E080E030E020E06C
:1054D00028C02132310579F122323105A9F780E463
:1054E00090E028EB3AE061157105D9F08FE490E087
:1054F00029E63AE061307105A1F0E6CF99278130C5
:10550000910599F0009741F08230910589F0039759
:10551000D9F6E6EBF9E002C0E8E1FAE0849190E028
:105520009F01FA01318320830895E8E0FAE0F6CF85
:10553000ECEBF9E0F3CF89E090E02EE23AE0611580
:10554000710579F389E090E027E43AE06130710574
:1055500041F3BACF82E190E027E53AE0E2CF8BE376
:1055600090E02CE13AE0DDCF80E189BD82E189BDA8
:1055700009B400FEFDCF8091D8008F7D8093D800C4
:105580008091E00082608093E0008091E00081FDE6
:10559000FCCF0895AF92BF92CF92DF92FF920F930C
:1055A0001F93CF93DF936C01EB018A010E94292C9A
:1055B000F82E811123C00115110539F0F801808101
:1055C0009181C81BD90BC80ED91EB12CA12C2097D4
:1055D000A9F08091E80085FD22C08091E8008E77D7
:1055E0008093E80001151105A1F0F80180819181F7
:1055F000A80EB91EB182A08285E0F82E8F2DDF9112
:10560000CF911F910F91FF90DF90CF90BF90AF90FF
:1056100008950E94292C8823D1F2F82EEFCFF601AD
:1056200081916F018093F1002197FFEFAF1ABF0ABC
:10563000CECFFC018091C7049091C80486179707CC
:10564000A0F06115710529F49091E8009E77909380
:10565000E80090E06115710551F4911108C0809146
:10566000E80082FF34C080E00895BC01F2CF809151
:10567000C0048823C1F18530C1F18091E80083FD29
:1056800030C08091E80082FDEACF8091E80080FF81
:10569000E1CF8091F3002091F200382F6115710560
:1056A00019F02830310558F091E02830310509F023
:1056B00090E02091E8002E772093E800CBCF8191F5
:1056C0008093F100615071092F5F3F4FE7CF8091C8
:1056D000C004882341F0853041F08091E80083FFC9
:1056E000BECF81E0089582E0089583E00895FC0133
:1056F0008091C7049091C80486179707A0F06115A0
:10570000710529F48091E8008E778093E80090E09D
:105710006115710551F4911108C08091E80082FF74
:1057200035C080E00895BC01F2CF8091C004882389
:10573000C9F18530C9F18091E80083FD31C08091C5
:10574000E80082FDEACF8091E80080FFE1CF809100
:10575000F3002091F200382F6115710519F02830FF
:10576000310558F091E02830310509F090E0809142
:10577000E8008E778093E800CBCF84918093F1008E
:105780003196615071092F5F3F4FE6CF8091C00481
:10579000882341F0853041F08091E80083FFBDCF40
:1057A00081E0089582E0089583E00895982F97306E
:1057B00028F08F708093E90081E008959093E900CC
:1057C000242F762F50E0981731F07091EC00209143
:1057D000ED005091F00021FD02C09F5FE8CF3091B5
:1057E000EB003E7F3093EB003091ED003D7F309336
:1057F000ED003091EB0031603093EB007093EC00E2
:105800002093ED005093F0002091EE0027FDE5CFAE
:1058100080E008958091C10487FF13C08091E80063
:1058200082FF06C08091E8008B778093E80004C077
:105830008091C0048111F2CF08958091C004882323
:10584000D9F38091E80080FFF8CF8091E8008E774F
:10585000ECCF2091E4003091E50095E6A90120917C
:10586000EC00822F817020FF06C08091E80080FF4D
:1058700006C080E008952091E80022FD1AC08091C2
:10588000C004882389F0853089F08091EB0085FD84
:105890000FC02091E4003091E50042175307F9F260
:1058A0009150E1F684E0089582E0089583E0089540
:1058B00081E008950E94C82C0E94D02CE0EEF0E018
:1058C000808181608083E8EDF0E080818F77808344
:1058D00019BCA7EDB0E08C918E7F8C9380818F7E78
:1058E00080831092BF0408950F931F93CF93DF938B
:1058F0000E94C82C0E94D02CC8EDD0E088818F7700
:10590000888388818068888388818F7D888319BC9B
:105910001092C0041092BC041092BE041092BD04F8
:1059200000EE10E0F80180818B7F808388818160A8
:10593000888342E060E080E00E94D62BE1EEF0E058
:1059400080818E7F8083E2EEF0E0808181608083C1
:10595000808188608083F80180818E7F8083888148
:1059600080618883DF91CF911F910F910895E8EDB9
:10597000F0E080818F7E8083E7EDF0E080818160C0
:10598000808384E082BF81E08093BF040C94742CF8
:10599000E8EDF0E080818E7F80831092E200089530
:1059A0001092DA001092E10008951F920F920FB644
:1059B0000F9211242F933F934F935F936F937F9395
:1059C0008F939F93AF93BF93EF93FF938091E100E9
:1059D00082FF0BC08091E20082FF07C08091E1004E
:1059E0008B7F8093E1000E943F2F8091DA0080FF3F
:1059F00019C08091D80080FF15C08091DA008E7F99
:105A00008093DA008091D90080FF96C080E189BD43
:105A100082E189BD09B400FEFDCF81E08093C0041E
:105A20000E943F298091E10080FF19C08091E2002F
:105A300080FF15C08091E2008E7F8093E20080910C
:105A4000E20080618093E2008091D80080628093C0
:105A5000D80019BC85E08093C0040E945129809130
:105A6000E10084FF2BC08091E20084FF27C080E129
:105A700089BD82E189BD89B5982F917080FFFBCFE8
:105A80008091D8008F7D8093D8008091E1008F7E37
:105A90008093E1008091E2008F7E8093E20080910C
:105AA000E20081608093E2008091BC04882309F4C5
:105AB00049C084E08093C0040E9452298091E10093
:105AC00083FF29C08091E20083FF25C08091E1001F
:105AD000877F8093E10082E08093C0041092BC0431
