:100000000C94D3050C941A060C941A060C94332BFA
:100010000C941A060C941A060C941A060C941A06E0
:100020000C941A060C941A060C94F9160C94B51636
:100030000C946D290C941A060C941A060C941A064A
:100040000C941A060C941A060C941A060C941A06B0
:100050000C941A060C94D4170C941A060C941A06D5
:100060000C941A060C941A060C941A060C941A0690
:100070000C941A060C941A060C941A060C941A0680
:100080000C941A060C941A060C941A060C941A0670
:100090000C941A060C941A060C941A060C941A0660
:1000A0000C941A060C941A060C941A06000101010D
:1000B0000101010101010202020202020202020325
:1000C00003030303030303040404040404040505F5
:1000D00005050506060606060707070707080808B8
:1000E00008090909090A0A0A0B0B0B0C0C0C0D0D67
:1000F0000D0E0E0E0F0F0F101011111112121313FF
:100100001414151516161717181819191A1A1B1B77
:100110001C1D1D1E1E1F20202122222324242526D3
:1001200026272829292A2B2C2D2D2E2F303132320B
:10013000333435363738393A3B3C3D3E3F40414217
:10014000434445464748494A4C4D4E4F50515354FD
:10015000555658595A5B5D5E5F61626465666869B1
:100160006B6C6D6F7072737577787A7B7D7E808231
:10017000838587888A8C8E8F91939596989A9C9E7A
:10018000A0A2A3A5A7A9ABADAFB1B3B5B7BABCBE8A
:10019000C0C2C4C6C9CBCDCFD1D4D6D8DBDDDFE257
:1001A000E4E7E9EBEEF0F3F5F8FAFDFFFFAA7F557F
:1001B000402223252628292A2C2D2F30323335366C
:1001C000383A3B3D3E4042434547494A4C4E5051E8
:1001D000535557595A5C5E6062646668696B6D6F0F
:1001E00071737577797B7D7F81838587898A8C8E12
:1001F00090929496989A9C9E9FA1A3A5A7A8AAAC1A
:10020000AEAFB1B3B4B6B8B9BBBCBEBFC1C2C3C553
:10021000C6C7C9CACBCCCDCED0D1D2D2D3D4D5D6F5
:10022000D7D7D8D9D9DADADBDBDBDCDCDCDCDCDD28
:10023000DDDDDDDCDCDCDCDCDBDBDBDADAD9D9D80C
:10024000D7D7D6D5D4D3D2D2D1D0CECDCCCBCAC9A4
:10025000C7C6C5C3C2C1BFBEBCBBB9B8B6B4B3B1D3
:10026000AFAEACAAA8A7A5A3A19F9E9C9A9896946E
:1002700092908E8C8A89878583817F7D7B79777543
:1002800073716F6D6B6968666462605E5C5A595722
:10029000555351504E4C4A4947454342403E3D3BE1
:1002A0003A3836353332302F2D2C2A29282625236B
:1002B000222B0014001A00080015001700E10004AA
:1002C000001600070009000A00E0001D001B0006E0
:1002D0000019000500000000000000E600E3002C0B
:1002E000002A00130012000C0018001C0034003318
:1002F000000F000E000D000B0029003800370036FB
:100300000010001100000000000000115F105F28C5
:10031000002B001E001F00200021002200E1000031
:10032000000000000000000000E0000000000000ED
:100330000000000000000000000000E600E3002CC8
:10034000002A0027002600250024002300000000CA
:10035000004F00520051005000000000000000005B
:100360000000000000000000000000010001002863
:10037000002B001E021F02200221022202E10000C7
:10038000000000000000000000E00000000000008D
:100390000000000000000000000000E600E3002C68
:1003A000002A0027022602250224022302350031FA
:1003B0000030002F002E002D003502310230022FB8
:1003C000022E022D020000000000000100010028A2
:1003D00000005C00000000000000000000C25CC5DE
:1003E0005CC75CC95C00000000C35CC65CC85CCA3A
:1003F0005C00000000000000000000E600E3002CAC
:1004000000000000000000000000000000000000EC
:1004100000000000000000000000000000000000DC
:1004200000000000000000000000000100010028A2
:100430000000AF000000000000000000000000000D
:10044000000000000000007E0F00D4FFFFFFC70087
:1004500000007800000000000000002A2B280000A7
:100460000000000000000000000000000000290063
:100470000000002C1E3420212224342627252E366D
:100480002D3738271E1F20212223242526333336DB
:100490002E37381F0405060708090A0B0C0D0E0F2E
:1004A000101112131415161718191A1B1C1D2F31B1
:1004B00030232D350405060708090A0B0C0D0E0F15
:1004C000101112131415161718191A1B1C1D2F3191
:1004D00030354C00DA0281FFD9F1DB20A4A62EAF23
:1004E00000A0C000A1C800AED580A81FD300408DD9
:1004F00014200032190A00047F3F1F643214643252
:1005000014783C1E1E140A058081828384858687A8
:1005100088898A8B8C8D8E8F9091929394A0A1A2C2
:10052000A3A4A5A6A7A8A9AAABACADAEAFB0B1B223
:10053000B3B4C0C1C2C3C4C5C6C7C8C9CACBCCCD79
:10054000CECFD0D1D2D3D40000AE0660FF0961A1D6
:10055000010962150026FF009520750881020963D4
:10056000150026FF00952075089102C005010906B7
:10057000A101050719E029E7150025019508750176
:1005800081029501750881010507190029FF1500F1
:1005900026FF0095067508810005081901290595B3
:1005A0000575019102950175039101C00902420090
:1005B000020100A0FA090400000103010100092161
:1005C000110100012240000705810308000A090407
:1005D0000100020300000009211101000122220094
:1005E0000705820320000107050303200001120113
:1005F0001001000000085346010001000102030140
:100600000403300000004A03560076006C006100CD
:100610006E00670020004B006500790062006F00EB
:1006200061007200640020005200650076002E0018
:10063000310020002800530070006C006900740035
:10064000200043006F006D006D006F006E002900F8
:1006500000000E03760076006C0061006E006700FB
:100660000000040309040000000000003E5B4F5B33
:100670003E003E6B4F6B3E001C3E7C3E1C00183C17
:100680007E3C18001C577D571C001C5E7F5E1C00C2
:1006900000183C180000FFE7C3E7FF00001824180B
:1006A0000000FFE7DBE7FF0030483A060E0026298E
:1006B00079292600407F05050700407F05253F007A
:1006C0005A3CE73C5A007F3E1C1C0800081C1C3E9C
:1006D0007F0014227F2214005F5F005F5F00060925
:1006E0007F017F00006689956A006060606060003D
:1006F00094A2FFA2940008047E04080010207E202B
:10070000100008082A1C0800081C2A0808001E10EF
:10071000101010000C1E0C1E0C0030383E3830003B
:10072000060E3E0E060000000000000000005F0004
:100730000000000700070000147F147F1400242A23
:100740007F2A1200231308646200364956205000A5
:10075000000807030000001C224100000041221C89
:1007600000002A1C7F1C2A0008083E0808000080A0
:1007700070300000080808080800000060600000F1
:100780002010080402003E5149453E0000427F40CF
:1007900000007249494946002141494D330018146F
:1007A000127F10002745454539003C4A4949310030
:1007B000412111090700364949493600464949296E
:1007C0001E0000001400000000403400000000087B
:1007D00014224100141414141400004122140800BF
:1007E0000201590906003E415D594E007C1211126A
:1007F0007C007F49494936003E41414122007F410A
:1008000041413E007F49494941007F0909090100F2
:100810003E41415173007F0808087F0000417F413D
:1008200000002040413F01007F08142241007F402A
:10083000404040007F021C027F007F0408107F00C0
:100840003E4141413E007F09090906003E415121D8
:100850005E007F09192946002649494932000301F3
:100860007F0103003F4040403F001F2040201F0009
:100870003F4038403F0063140814630003047804C9
:1008800003006159494D4300007F4141410002048A
:1008900008102000004141417F00040201020400D1
:1008A00040404040400000030708000020545478B6
:1008B00040007F28444438003844444428003844E9
:1008C00044287F0038545454180000087E09020060
:1008D0001824241C78007F080404780000447D401C
:1008E00000002040403D00007F10284400000041EF
:1008F0007F4000007C04780478007C0804047800C1
:100900003844444438007C1824241800182424183F
:100910007C007C0804040800485454542400040457
:100920003F4424003C4040207C001C2040201C0010
:100930003C4030403C004428102844004C909090AB
:100940007C004464544C4400000836410000000020
:100950007700000000413608000002010204020096
:100960003C2623263C000000000000E0F070303000
:1009700030303030303C1C04000000000000000C1F
:100980003CFCFCF0C0000000000000C0F0FCFC1CBF
:100990003CFCFCF0C0000000000000C0F0FCFC1CAF
:1009A00000FCFCFCFC000000000000000000000057
:1009B0000080E0FCFCFCFCF0C0000000000000FC3B
:1009C000FCFCF8E0C00000000000FCFCFC000000A3
:1009D000C0E0F0F8783C1C1C1C1C1C3CF8F8F0E053
:1009E00000000000E0F0F0F0E0ECEEF7F370200023
:1009F0007C7C7C7E007E7E7E7F7F7F000080C0E0EE
:100A00007E5B4F5BFEC00000C000DCD7DEDEDED7C1
:100A1000DC00C0000000000000000000000000003A
:100A20000000000000000000FE2B572B572B572B17
:100A3000572B572B572B572B572B572B57FF000054
:100A40000000071FFFFEF080C0F0FEFF1F03000044
:100A50000000071FFFFEF080C0F0FEFF1F03000034
:100A600000FFFFFFFF000000000000000000E0F0BA
:100A7000FCFF7F777170777FFFFEF8C0000000FFFA
:100A8000FFFF01070F3F7EF8F0E0FFFFFF000018B7
:100A9000FFFFFF81000000003838383838F9F9F8D6
:100AA000000000000F1F3F7F7F7F7F7F3F1E0C00F5
:100AB0001F1F1F3F003F3F3F7F7F7F00307B7F78BE
:100AC00030202030787F3B0003000F7F0F0F0F7F17
:100AD0000F00030000000000000000000000000004
:100AE00000000000000000000F08080808080B0BB9
:100AF0000B0B0B0B0B0B0B0B0B080808080F000064
:100B00000000000000070F0F0F0F0700000000009B
:100B10000000000000070F0F0F0F0700000000008B
:100B2000000F0F0F0F0E0E0E0E0E0E000C0F0F0FFC
:100B30000F0100000000000000030F0F0F0C000F5A
:100B40000F0F000000000001030F0F0F0F00000047
:100B50000007070F0F0E1E1C1C1E1E1E0F0F07077F
:100B60000000000000000000000000000000000085
:100B70000000000000000000000000000000000075
:100B80000000000000000000000000000000000065
:100B90000000000000000000000000000000000055
:100BA00000000000000011241FBECFEFDAE0DEBF1E
:100BB000CDBF04B603FE27C08091E6059091E705FE
:100BC000A091E805B091E9058730904BA740B04B64
:100BD000D1F41092E6051092E7051092E805109204
:100BE000E90514BE84B7877F84BF0FB6F894A89533
:100BF00080916000886180936000109260000FBE59
:100C0000E0E0F8E3099525E0A6EEB1E001C01D9211
:100C1000A63EB207E1F711E0A0E0B1E0E4EFF1E6B3
:100C200002C005900D92A63EB107D9F70E941D2380
:100C30000C949E300C940000E8EDF0E080818E7FF3
:100C400080831092E2001092DA001092E100A0EE90
:100C5000B0E08C9181608C9380818F77808319BC08
:100C6000A7EDB0E08C918E7F8C9380818F7E808306
:100C70001092BD0308952091E4003091E50095E6BF
:100C8000A9012091EC00822F817020FF06C0809185
:100C9000E80080FF06C080E008952091E80022FD72
:100CA0001AC08091D303882389F0853089F0809120
:100CB000EB0085FD0FC02091E4003091E500421764
:100CC0005307F9F29150E1F684E0089582E0089527
:100CD00083E0089581E00895EF92FF920F931F93B0
:100CE000CF937C018B010E943B06C82F811117C056
:100CF0008091E80085FD0BC08091E8008E7780939D
:100D0000E8000E943B06882399F3C82F08C0F7012A
:100D100081917F018093F1000150110949F78C2FD7
:100D2000CF911F910F91FF90EF900895CF93FC0109
:100D30008091D303843001F5C091E900CF702091F8
:100D4000EC00922F917020FD90E8C92B82E08093F7
:100D5000E9008091E80080FF0CC050E040E060E2D4
:100D600070E0CF010E946C068091E8008E7780933E
:100D7000E800CF70C093E900CF9108958091CB0334
:100D800087FF13C08091E80082FF06C08091E800D1
:100D90008B778093E80004C08091D3038111F2CF58
:100DA00008958091D3038823D9F38091E80080FFD0
:100DB000F8CF8091E8008E77ECCF982F9093E900E0
:100DC000242F762F50E0891731F07091EC0020919C
:100DD000ED005091F00021FD07C09F5F973071F743
:100DE0008093E90081E008953091EB003E7F3093DD
:100DF000EB003091ED003D7F3093ED003091EB0042
:100E000031603093EB007093EC002093ED00509331
:100E1000F0002091EE0027FDE0CF80E00895CF9212
:100E2000DF92EF92FF920F931F93CF93DF93C8ED62
:100E3000D0E088818F7E8883E7EDF0E0808181605B
:100E4000808384E082BF81E08093BD0388818E7FB0
:100E5000888302EE10E0F80110821092DA0081EE31
:100E6000C82ED12CF601108288818F7788838881E3
:100E70008068888388818F7D888319BC1092D30312
:100E80001092CA031092C9031092C80390EEE92E83
:100E9000F12CF70180818B7F80838881816088833A
:100EA00042E060E080E00E94DD06F60180818E7FF6
:100EB0008083F80180818160808380818860808365
:100EC000F70180818E7F8083888180618883DF91B4
:100ED000CF911F910F91FF90EF90DF90CF900895E9
:100EE000FC018091D1039091D20386179707A0F05F
:100EF0006115710529F49091E8009E779093E800C0
:100F000090E06115710551F4911108C08091E800DD
:100F100082FF34C080E00895BC01F2CF8091D303FA
:100F20008823C1F18530C1F18091E80083FD30C094
:100F30008091E80082FDEACF8091E80080FFE1CF58
:100F40008091F3002091F200382F6115710519F09E
:100F50002830310558F091E02830310509F090E053
:100F60002091E8002E772093E800CBCF81918093E9
:100F7000F100615071092F5F3F4FE7CF8091D3039C
:100F8000882341F0853041F08091E80083FFBECF97
:100F900081E0089582E0089583E00895089508951A
:100FA000089508958091BF03089587E797E7909388
:100FB00001088093000888E19AE00FB6F894A8959C
:100FC000809360000FBE90936000FFCF9C014FB7ED
:100FD000F8948091450390914603A0914703B09106
:100FE00048034FBF821B930B08952FB7F89460916D
:100FF00045037091460380914703909148032FBFAA
:1010000008959C01FC0132969FEF80E041914617C4
:1010100051F09F3F19F4411101C0982F8F5F863026
:10102000A9F79F3F09F40895290F311D97FD3A95BF
:10103000F901628308958091400381111092400369
:10104000089580913F0390913E03892B90913D0339
:10105000892B8093E60190914003992391F0892B8D
:101060008093E60120E088EE91E0FC013191CF0110
:1010700031112F5FF1E08E3E9F07B9F721110E94D9
:101080001B08E0915603F0915703309731F002802E
:10109000F381E02D86EE91E009940895E92FEE0F9B
:1010A000E90FEE0F8E0F982F97708695869586958F
:1010B00025E0829FF0011124E25EFC4F50E040E009
:1010C00080E0219130E0092E02C0369527950A94E0
:1010D000E2F721703327042E01C0220F0A94EAF7A9
:1010E000822B4F5F5F4F4530510559F70895E92F27
:1010F000EE0FE90FEE0F8E0F982F977041E001C0B1
:10110000440F9A95EAF786958695869595E0899F8E
:10111000F0011124E25EFC4F30E020E070E05191DC
:10112000DF011197CB01022E02C0969587950A9494
:10113000E2F7817081958527842385278C932F5F23
:101140003F4F2530310559F708956093D4037093CC
:10115000D5038093D6039093D70310923E03109249
:101160003D030C9421080F931F936091D403709159
:10117000D5038091D6039091D7038B019C01067013
:10118000112722273327063011052105310529F4BF
:1011900068601F910F910C94A508677FFACF0F9399
:1011A0001F9341E050E060E070E004C0440F551F21
:1011B000661F771F8A95D2F7CB01BA0160957095AB
:1011C000809590950091D4031091D5032091D6037A
:1011D0003091D70360237123822393231F910F91B2
:1011E0000C94A50890913C038095892380933C033F
:1011F000282F277071F4282F082E000C330B92171C
:10120000130639F08595859585950E94CF08109233
:101210003C0308950F931F9341E050E060E070E0BD
:1012200004C0440F551F661F771F8A95D2F780911F
:10123000D4039091D503A091D603B091D7038A012E
:101240009B01082B192B2A2B3B2BC901B8011F919D
:101250000F910C94A508609341037093420380930F
:1012600043039093440310923E0310923D030C9469
:10127000210880911D039091EC02981301C00895FC
:101280008F5F8770FACF882341F0809590913F035C
:10129000892380933F030C9421080895882339F013
:1012A00090913F03982B90933F030C94210808954D
:1012B000882309F459C09CEF980F913A78F4E8EE2E
:1012C000F1E02EEE31E09191891303C0DF01119717
:1012D0001C922E173F07B9F70C94210890E2980F43
:1012E000983088F4877021E030E0A90102C0440FF3
:1012F000551F8A95E2F7CA01809590913F03892393
:1013000080933F03E9CF9BE5980F9330B0F4809131
:10131000E2029091E302892B39F11092E3021092DC
:10132000E202E0915603F09157033097E9F006800E
:10133000F781E02D90E080E00994885A8731A0F48D
:101340008091E4029091E502892B71F01092E50200
:101350001092E402E0915603F0915703309721F088
:101360000084F185E02DE6CF0895CF93C82F882320
:10137000A1F18CEF8C0F813AF8F4E8EEF1E0DF0197
:101380008D91C81761F081E0AE3EB807C9F76C2FA8
:1013900086EE91E00E940108CF910C942108819182
:1013A000C81303C0DF0111971C9281E0EE3EF807DD
:1013B000B1F70E942108EBCF80E28C0F883068F4EF
:1013C000C77021E030E001C0220FCA95EAF7809192
:1013D0003F03822B80933F03DFCFCF910895E091AD
:1013E0005603F0915703309721F00190F081E02DE2
:1013F000099480E00895FA01811101C0FB0109946C
:10140000E2E6F3E011828281846082830895809114
:10141000B003982F9E7F61F4817082608093B00347
:101420008091B303893718F088E78093B303089558
:101430008635B0F381708465F1CFAF92BF92DF92B1
:10144000EF92FF920F931F93CF93DF93182F062FE6
:10145000E901493708F048E7E42FF0E0E455FF4F91
:10146000011110C0E4915E2F4E2F4983E8835A8307
:10147000DF91CF911F910F91FF90EF90DF90BF9080
:10148000AF900895202F30E04491D42EE42EF12C1B
:1014900056E0159FC0011124EFEFF0E0BF010E945C
:1014A0005A2C812F90E0880F991F55E5569FD00147
:1014B000579FB00D11248A1B9B0B982F990F890FF2
:1014C0005F01A21AB30AAE9CD001AF9CB00DBE9CC6
:1014D000B00D11245B2F089F80011124012F1127CB
:1014E0005F01A01AB10AAE9C8001AF9C100DBE9C9A
:1014F000100D11245F01A81AB108A29EC001A39E7D
:10150000900DB29E900D1124892F9927E81BF90B9D
:10151000EE9DC001EF9D900DFE9D900D1124E92FD1
:1015200062307105A1F050F46115710509F49DCF89
:101530006130710581F0EB2F512F97CF6430710529
:1015400069F080F06630710509F48FCFF4CFE42F95
:101550004B2F592F8ACFE42F412F87CFEB2F542FBA
:10156000492F83CF4B2F5D2DE12F7FCF90915303D8
:1015700092FF06C0282F28712830F9F4877F8460F5
:1015800093FF06C0282F28712831F1F4877E8461EB
:101590002091540320FF06C0382F38713830D9F419
:1015A000877F816021FF06C0282F28712831D1F460
:1015B000877E816194FD877E0895282F24712430D1
:1015C000F9F68B7F8860DCCF282F2471243101F756
:1015D0008B7E8861DDCF382F3171313019F78E7FE6
:1015E0008860E0CF282F2171213121F78E7E88611C
:1015F000E1CF10923F03E8EEF1E086E0DF011D92BB
:101600008A95E9F710923E0310923D030C9421084D
:101610001F93CF93DF93CDB7DEB7AA970FB6F89499
:10162000DEBF0FBECDBF8BEC93E02091F100FC013B
:101630002193CF01F3E0833D9F07B9F78091CC035D
:10164000833009F46FC0B8F4813009F446C08230A9
:1016500009F4B0C08091E80083FF8EC28091CB0373
:101660009091CC039A3008F087C2E92FF0E0E05661
:10167000FF4C0C94822C8A3009F48BC08B3009F417
:101680006EC0893039F78091CB03813219F7809190
:10169000CF039091D003892BE9F68091E800877FF2
:1016A0008093E8008091E80082FF37C09091F300BA
:1016B0008091F200029729F48091F1008B7F8130B4
:1016C00021F48091F1008093BF038091E8008B7733
:1016D0008093E8000E94BE06BDCF8091CB03813A83
:1016E00009F0B8CF8091E800877F8093E80080916F
:1016F000CF039091D003892B61F468E080EC93E0F4
:1017000070E00E9470078091E8008B778093E8007A
:10171000A1CF60E090E080E0F3CF8091D30381110E
:10172000C1CF98CF8091CB03813A09F093CF8091BC
:10173000CF039091D003892B09F08CCF8091E800E2
:10174000877F8093E8008091E80080FFFCCF809144
:1017500034018093F1008091E8008E77B9CF8091B9
:10176000CB03813209F076CF8091CF039091D003E3
:10177000892B09F06FCF8091E800877F8093E80084
:101780000E94BE068091CD03809334010E94F90A25
:1017900061CF8091CB03813209F05CCF8091E8006A
:1017A000877F8093E8000E94BE068091CE038093DD
:1017B000BE0350CF8091CB03813A09F04BCF80918B
:1017C000E800877F8093E8008091E80080FFFCCFED
:1017D0008091BE03BECF803899F0823809F0CCC129
:1017E0008091CF038F70873008F0C6C18093E900E5
:1017F0008091EB0085FB882780F91092E90006C0F4
:101800008091C8039091C903911182609091E80082
:10181000977F9093E8008093F1001092F1008091FF
:10182000E8008E77A5C1882309F493C1823009F0BE
:10183000A3C18091CD03811196C18091CF038F7098
:101840002FEF280F263008F097C18093E9002091F0
:10185000EB0020FF88C1933031F48091EB0080626F
:101860008093EB0080C19091EB0090619093EB002E
:1018700021E030E001C0220F8A95EAF72093EA00C8
:101880001092EA008091EB008860EACF811174C168
:101890001091CD031F778091E3008078812B809396
:1018A000E3008091E800877F8093E8000E94BE06F5
:1018B0008091E80080FFFCCF8091E30080688093F6
:1018C000E30082E0111183E08093D30355C1805877
:1018D000823008F051C12091CD033091CE032C3DD0
:1018E00083E03807A1F583E08A838AE289834FB7D2
:1018F000F894DE01139620E03EE051E2E32FF0E0A1
:1019000050935700E49120FF03C0E295EF703F5FD2
:10191000EF708E2F90E0EA30C0F0C7968D939D93C4
:101920002F5F243159F74FBF8091E800877F809364
:10193000E8006AE270E0CE0101960E947007809193
:10194000E8008B778093E80017C1C096E7CF4091FD
:10195000CF035091D003832F99278330910501F154
:1019600060F48130910509F47EC0029709F004C14A
:1019700082E490E0ECEAF5E035C08132910509F4AB
:1019800066C08232910509F0F7C04115510509F48E
:1019900074C04130510509F0EFC0EAE4F5E022C01F
:1019A00033272130310509F442C02115310581F07A
:1019B0002230310509F443C02330310509F0DCC081
:1019C000E0E0F6E0E4918E2F90E0E0E0F6E007C082
:1019D000E2E6F6E0E4918E2F90E0E2E6F6E0009792
:1019E00009F4CAC02091E800277F2093E8002091E5
:1019F000D1033091D2038217930708F49C0140E091
:101A00002115310509F03EC041113CC08091E8002C
:101A100082FD95CF8091D303882309F490CF853040
:101A200009F48DCF8091E80083FFF0CF88CFE2E505
:101A3000F6E0E4918E2F90E0E2E5F6E0D0CFE6E02C
:101A4000F6E0E4918E2F90E0E6E0F6E0C8CF411595
:101A5000510571F04130510509F08EC089E090E0E8
:101A6000E7EDF5E0BFCF82E190E0EEEEF5E0BACF32
:101A700089E090E0EEEBF5E0B5CF80E490E0ECE6B5
:101A8000F5E0B0CF8091D303882309F458CF853097
:101A900009F455CF8091E80083FD51CF8091E80093
:101AA00082FDB4CF8091E80080FFAACF9091F3002F
:101AB0008091F2002115310519F08830910550F020
:101AC00041E0089709F040E08091E8008E7780932C
:101AD000E80096CF44914093F100319621503109AE
:101AE0000196E8CF803809F047C08091E800877FF1
:101AF0008093E8008091CA038093F10090CE811119
:101B00003BC01091CD031230B8F58091E800877F7B
:101B10008093E8001093CA030E94BE06112311F0BF
:101B200084E005C08091E30087FDFACF81E08093D7
:101B3000D30342E061EC81E00E94DD0642E261EC09
:101B400082E00E94DD0642E260EC83E00E94DD0656
:101B500013C08091CD03813079F481E0933009F096
:101B600080E08093C9031092E9008091E800877FAC
:101B70008093E8000E94BE068091E80083FF0AC0BF
:101B80008091E800877F8093E8008091EB0080627D
:101B90008093EB00AA960FB6F894DEBF0FBECDBFC0
:101BA000DF91CF911F910895CF93DF93682F81E04C
:101BB0006A3019F06D3029F480E0DF91CF910C94F8
:101BC000630E8091E1059091E20526E0FC01ABED0A
:101BD000B5E001900D922A95E1F7603E08F45AC0F5
:101BE00026E0FC0111922A95E9F7C091E105D09118
:101BF000E20546E050E0BE018BED95E00E94472DE6
:101C00009E012B5D3340892B41F1C90145E096953A
:101C100087954A95E1F741E050E0BA0102C0660FAE
:101C2000771F8A95E2F7CB016091D9037091DA03AF
:101C3000862B972BB9016B5F7F4FE5E07695679513
:101C4000EA95E1F702C0440F551F6A95E2F7842B2D
:101C5000952B9093DA038093D9032A5F3F4F4091ED
:101C6000D803642F70E0C9010E945A2C481B4630EB
:101C700010F4240F311D211572E0370710F030E009
:101C800020E025523C4F3093E2052093E105DF919F
:101C9000CF910895F6E06F9FB00111246A59794FF2
:101CA00046E050E00E94312DA0CFCF93DF93EC01AE
:101CB000FE018491811103C0DF91CF9108950E94AC
:101CC000D40D2196F5CFCF93382FE091E105F09117
:101CD000E205EB5DF3402091D803622F70E0CF0165
:101CE0000E945A2C281B822F332361F066E00E9449
:101CF000402CC82FC15010F4CF91089580E20E946B
:101D0000D40DF8CF9F01280F311D2115324018F056
:101D100080E0F0E0E0E08E0F9F2F911D85529C4FF8
:101D20009093E2058093E105E7CFCF92DF92EF92A7
:101D3000FF920F931F93CF93DF936C017B0164E6B7
:101D400070E088E70E949A29EC0197FD12C010E02C
:101D500000E0F601E00FF11F849164E670E00E945C
:101D6000F629EC01892B29F40F5F1F4F0E151F0573
:101D700081F70E94792ACE01DF91CF911F910F91B7
:101D8000FF90EF90DF90CF9008950E94F507605A82
:101D900075418F4F9F4F6093A0037093A103809371
:101DA000A2039093A3038091A403811108C062E071
:101DB00070E081E394E00E94950E892B19F08091E8
:101DC000A403089581E08093A403F9CFCF93DF9318
:101DD000EC0181E08093E9008FEF9091E800815061
:101DE00095FD06C095ED9A95F1F700008111F5CFAC
:101DF0008091E80085FF14C050E040E068E070E0AA
:101E0000CE010E946C068091E8008E778093E800F6
:101E100088E0FE01A0ECB3E001900D928A95E1F715
:101E2000DF91CF910895CF93C82F0E94B509C93390
:101E300049F42FEF87EE93E0215080409040E1F786
:101E400000C000008C2FCF910C9458098091B003F2
:101E500080FD0AC0E4E0F2E0118210821282339623
:101E600052E0E535F507C1F7539A3BB1377F2BB107
:101E700028604FB7F89484E092E0FC015191CF01C3
:101E800068E02BB9000000C057FF3BB9550F0000B8
:101E900000C000C000C03BB900C06A9591F7F2E0F5
:101EA00085359F0751F74FBF8FE594E00197F1F714
:101EB00000C000000895EF92FF921F93CF93DF932D
:101EC000EC0184E0E82E82E0F82E10E08C8197018E
:101ED0004091B3036091B203810F0E941D0A175F06
:101EE00083E0E80EF11C133F89F70E94260F9A81C8
:101EF0008C8190FF08C08F5F8C83DF91CF911F9101
:101F0000FF90EF9008958150F7CF9F92AF92BF92CC
:101F1000CF92DF92EF92FF920F931F93CF93DF93B5
:101F2000EC018A81BB24BA9480FD02C0BB24B39427
:101F30008C81811108C081E0B8125DC08AE1809374
:101F4000010281E08C8324E0E22E22E0F22E10E0F8
:101F500000E03BE1932EF70111821082128294E09F
:101F6000C92ED12CA12C809101028A0D8C310CF448
:101F700045C0692D0E944C2C892F082E000C990B0E
:101F80008017910791F48091B3038C9DA0018D9DE2
:101F9000500D11245595479555954795970160919A
:101FA000B2038091B1030E941D0AAB0CF1E0CF1A7D
:101FB000D108C9F60F5F1F4F83E0E80EF11C0B310B
:101FC000110549F60E94260F8091010291E0B91295
:101FD0001EC0811117C08AE1809301021C82DF912B
:101FE000CF911F910F91FF90EF90DF90CF90BF9016
:101FF000AF909F90089510920102A3CF87FFBDCFAD
:10200000855EBBCF815080930102BC82E8CF90E017
:102010000196B8010E946E2C809301028C83DFCF61
:10202000EF92FF920F931F93CF93DF937C01FC01FC
:102030008481811109C081E084831092020292E0C0
:102040009093100180930F01C4E0D2E0FE01118251
:1020500010821282339682E0E535F807C1F710E06E
:1020600000E080910202082E000C990B0817190756
:10207000BCF180911001082E000C990B801791077C
:102080007CF19E014091B3036091B2038091B10352
:102090000E941D0A0F5F1F4F23960B31110509F790
:1020A0000E94260F80910F0190910202980F909349
:1020B000020220911001280F20931001121614F42F
:1020C0009A313CF0819580930F01813011F4F70132
:1020D0001482DF91CF911F910F91FF90EF9008959F
:1020E000198218821A82D6CF8F929F92AF92BF9296
:1020F000CF92DF92EF92FF920F931F93CF93DF93D4
:10210000EC014C81042F10E09801D8010E948F301F
:102110009B01AC010E945A304B015C01E0E2F0E00F
:10212000E01BF10BA5E5B0E0AC019B010E945A3029
:102130006B017C019F01DF010E948F2C9B01AC0190
:102140000E9465309B01AC01280D391D4A1D5B1DA5
:10215000C701B6010E946D30F22E822F90E039E265
:102160003F15D8F143E0249F900111243595279520
:10217000122F109594E0C92E92E0D92E00E085E54B
:10218000E82EEF188E2D01FD8F2D9601412F6091C5
:10219000B2030E941D0A0F5F53E0C50ED11C0B3124
:1021A00089F70E94260F9C8181E0992319F09032D3
:1021B00019F48FEF8093110180911101890F8C83A5
:1021C000DF91CF911F910F91FF90EF90DF90CF9013
:1021D000BF90AF909F908F90089525E530E0A901C2
:1021E000481B590BCA019A01220F331F280F391FB0
:1021F00037FFBCCF2F5F3F4FB9CFEF92FF920F93C6
:102200001F93CF93DF938C01C4E0D2E0F12CE12C3B
:10221000F80194816091B2038091B103FDE0EF1663
:10222000F104FCF49923F9F09E014091B3030E945C
:102230001D0A2FEFE21AF20A23968BE1E816F10449
:1022400039F70E94260FF801848190E00196817091
:1022500099278483DF91CF911F910F91FF90EF9089
:102260000895992309F39E0140E0E1CF9091B003D6
:1022700090FF0CC0E4E0F2E08183608342833396F8
:1022800092E0E535F907C1F70C94260F08950F93F6
:102290001F93CF93DF9300D00F92CDB7DEB78C01A1
:1022A0008091030281110AC09E012F5F3F4F48E7D2
:1022B0006FEF0E941D0A8A8180930302F8016481F6
:1022C000613069F08091030240E0662361F040E0F4
:1022D000623011F44091030280E060E004C060913C
:1022E000030240E080E00E943611F801848190E012
:1022F000019663E070E00E946E2C84830F900F9033
:102300000F90DF91CF911F910F910895CF93DF939D
:1023100000D00F92CDB7DEB79091B00390FF0AC006
:102320009E012F5F3F4F0E941D0A4B8169818A8168
:102330000E9436110F900F900F90DF91CF9108956A
:10234000CF93DF93EC01EC81F0E0EF54FE4F44912A
:10235000E0EBF3E0628181810E9486118C818F5FC6
:102360008C83DF91CF910895CF93DF93EC01E0EB65
:10237000F3E0438162818C810E9486118C818F5FA2
:102380008C83DF91CF910895E0EBF3E080818E7F25
:1023900080830E94000AE2E6F3E08281816082830A
:1023A0002FEF80E792E0215080409040E1F700C09D
:1023B00000000C94260F80910002811111C08091C1
:1023C000D80080618093D8008AE18A95F1F700C037
:1023D0009091D900892F817090FF82E08093000254
:1023E00081E090910002913009F080E00895CF9350
:1023F00084E090E00E94F32FC82F81E290E00E94D9
:10240000F32F982F8C2FCF9108950F931F93CF9375
:10241000DF93C42FD0E0CC0FDD1F2CE0629FC00DF6
:10242000D11D112430E6839FC00DD11D1124CE0192
:1024300086960E94F32F082F10E0102F0027CE0160
:1024400087960E94F32F9801282BC901DF91CF9125
:102450001F910F910895462F843038F4783028F476
:10246000663018F4672F0C94051290E080E0089510
:10247000CF93DF930E942B12EC018238910589F1F2
:10248000B8F58133910509F492C028F58932910598
:1024900009F486C08A9709F491C0C11523E5D207D3
:1024A00008F0ACC0C11532E5D30708F011C1C11561
:1024B00040E2D40708F090C0C11581E0D80730F59C
:1024C000C53AD10508F081C0C430D105F8F4C13057
:1024D000D105E1F040C08533910509F45AC0C99790
:1024E000E1F680915303837089F0C0EED0E00EC016
:1024F000833E910599F170F4803E910501F1823E91
:10250000910559F68091530382FD21C0CE01DF91E0
:10251000CF910895863E910561F1873E910571F155
:10252000843E910509F0B9CF8091540381FFEECF2D
:1025300080915303C7EED0E084FD0DC0E7CF8091BA
:10254000530380FDF4C09091540390FFDFCFC3EE9E
:10255000D0E084FFDBCFD0E0C0E0D8CF8091530340
:1025600082FDE8C09091540390FDBFCF84FFCECF91
:10257000F2CF8091530383FDDDCFC8CF8091530309
:1025800083FDDBC09091540391FFF0CFC4EED0E007
:10259000BDCF8091530385FFB9CFC9E2D0E0B6CF5C
:1025A0008091530385FFB2CFC5E3D0E0AFCF8091D8
:1025B000530386FFABCFCAE2D0E0A8CF809153038C
:1025C00086FFA4CFC1E3D0E0A1CFCE01805E910908
:1025D000089708F49BCFBFCFC11591E5D90708F044
:1025E00072C0C11520E5D20708F050C0C11530E413
:1025F000D30708F4B0CFDF70D06A88CFC11546E5A5
:10260000D407F0F4C11585E5D80708F077C0C115E7
:1026100094E5D90708F06DC0CE018370992721E0B9
:1026200030E002C0220F331F8A95E2F7C695C695A7
:1026300090E2C99FE0011124C22BD32BDA6866CF48
:10264000C1152AE5D20778F4C11539E5D30708F09A
:1026500060C0C11548E5D40708F47DCFDC2FCC2736
:10266000C06FD06A53CFCE0190568115904208F0CA
:1026700072CF8D2F8F710E94B60A90E0982F882715
:1026800088279F719C012C2BE90141C0CE01E4E019
:1026900096958795EA95E1F783702C2F26952695D8
:1026A000237040E2249F90011124382B8C2F8370DB
:1026B000C1E0D0E002C0CC0FDD1F8A95E2F7C22B4B
:1026C000D32BDC6823CFDC2FCC27C16FD06A1ECF81
:1026D000CE018370992721E030E002C0220F331F22
:1026E0008A95E2F7C695C69580E2C89FE00111245D
:1026F000E6CFDC2FCC27C46FD06A08CF8C2F0E9486
:10270000B60AC82FD0E0DC2FCC27CC27DF71D062EF
:10271000FDCE8C2F8F700E94B60A34E0D695C795F7
:102720003A95E1F7CF709C2FEC01D069EFCEC9E369
:10273000D0E0ECCEC2EED0E0E9CEC6EED0E0E6CE00
:10274000BF92CF92DF92EF92FF920F931F93CF939E
:10275000DF938C01C090D403D090D503E090D603D2
:10276000F090D7038091410390914203A0914303DD
:10277000B0914403C82AD92AEA2AFB2ACFE1D0E043
:10278000BC2ED701C6010C2E04C0B695A79597950F
:1027900087950A94D2F780FD0EC0219788F7B12C57
:1027A0008B2DDF91CF911F910F91FF90EF90DF90D4
:1027B000CF90BF900895B8018C2F0E9438120197D6
:1027C00061F3EECFCF93DF93EC010E94A013BE0123
:1027D000DF91CF910C9438120E94E213292F2F70B1
:1027E00092959F7092509E3078F4E92FF0E0E65574
:1027F000FF4C0C94822C803F19F020F4883E20F48A
:1028000081E00895843FE1F380E00895883EC0F3BD
:10281000813FD1F7F5CF822F8695869586950895CD
:102820006F927F928F929F92AF92BF92CF92DF92E0
:10283000EF92FF920F931F93CF93DF9381EBC82EFC
:1028400082E0D82E92E9E92EF12CE701C056D10999
:1028500036011BC0F50185909490692DC8010E9436
:102860000730682DC80101960E94073082E0A80E4B
:10287000B11C0E5F1F4FC017D10761F78CE0680EC7
:10288000711C2C96CE15DF0529F08E010C50110914
:102890005301E0CF7E0180E6E80EF11C80E6C80E11
:1028A000D11C82E1E81682E0F80679F6DF91CF913B
:1028B0001F910F91FF90EF90DF90CF90BF90AF905E
:1028C0009F908F907F906F900895CF93DF93C6EA8B
:1028D000D1E060E0CE010E9407302196C11584E06E
:1028E000D807B9F7DF91CF910895CF93C82F6FEF35
:1028F000811160E282E290E00E9407306FEFC11127
:1029000061E183E290E00E9407306FEFC11163E064
:1029100084E290E0CF910C9407308F929F92AF9217
:10292000BF92CF92DF92EF92FF920F931F93CF93BC
:10293000DF93FC01B280948081E08483C5E5D2E01E
:1029400004E012E08BE4A82E88248394EE24EA9419
:10295000F12C2BE4C22ED12C91101DC01B821A82A7
:1029600098014A81698188810E941D0A25960D5F20
:102970001F4F82E0CC3DD80779F7DF91CF911F91AF
:102980000F91FF90EF90DF90CF90BF90AF909F900E
:102990008F900C94260F2B81222309F121502B8339
:1029A0003C818A2D821B311101C0822F9091B3038B
:1029B000899FC0011124B6010E945A2C6A832111FB
:1029C00004C0332311F01C82AB8222E02B1540F2AD
:1029D0008091B10388838091B2038983C1CF0E9423
:1029E000212D823091400CF0BBCF82E08B15C0F4DA
:1029F0000E94212DB7010E946E2C888322E02B15A6
:102A000090F40E94212D2091B2032695622F70E050
:102A10000E946E2C280F29831A82AB828C82A0CF51
:102A20008091B103EACF2091B203F5CF6CEE7EEF37
:102A300090E080E00E94253060E082E090E00E941B
:102A4000073060E083E090E00E940730109241037D
:102A500010924203109243031092440360E084E01A
:102A600090E00E94073060E081E290E00E94073031
:102A700060E085E090E00E94073060E086E090E052
:102A80000E9407306FEF87E090E00E94073040E03F
:102A900050E0BA0188E090E00E94193060E08DE0DB
:102AA00090E00E94073040E050E0BA0188E190E0F9
:102AB0000E94193060E087E190E00E94073040E01A
:102AC00050E0BA018CE190E00E94193060E080E2B1
:102AD00090E00E94073040E050E0BA018FE090E0C3
:102AE0000E94193040E050E0BA0183E190E00C947C
:102AF0001930CF92DF92EF92FF926B017C010E941E
:102B0000070AB701A60188E090E0FF90EF90DF9000
:102B1000CF900C9419303F924F925F926F927F92B8
:102B20008F929F92AF92BF92CF92DF92EF92FF92DD
:102B30000F931F93CF93DF9300D00F92CDB7DEB7E3
:102B4000182F562E042F422E9091B00390FF3BC0B9
:102B5000E92FE695AE2FB0E0A759BE4F8C91809338
:102B600062039E7F923009F043C09E012F5F3F4F6A
:102B7000812F0E941D0A4B8169818A810E94361132
:102B80008091B103811308C08091B203851104C004
:102B90008091B303801729F0809164038260809351
:102BA00064031093B1035092B2030093B303442023
:102BB00051F06091B0037091B1038091B203909194
:102BC000B3030E9479150F900F900F90DF91CF9172
:102BD0001F910F91FF90EF90DF90CF90BF90AF903B
:102BE0009F908F907F906F905F904F903F9008954F
:102BF000823019F40091B303C3CF863019F41091D9
:102C0000B103BECF8930D9F3893109F0B9CFE95189
:102C10008E2F8170382EE695F0E0E455FE4FA5909A
:102C2000B490BB2484E0E82E82E0F82E95E5892E4E
:102C300092E0992ED12CC12C2BE1622E712CC60171
:102C4000B3010E945A2C812F311011C0860F9701B9
:102C5000402F652D0E941D0ACA0CDB1C83E0E80E84
:102C6000F11C8E149F0459F70E94260F89CF861BF2
:102C7000EECFE0EBF3E0438121E1421B08F440E0BA
:102C800021E0628181810C948B15E0EBF3E04381BC
:102C900021E1420F08F44FEF21E0628181810C9421
:102CA0008B15E0EBF3E0628121E1621B08F460E048
:102CB00021E0438181810C948B15E0EBF3E062818C
:102CC00021E1620F08F46FEF21E0438181810C94D0
:102CD0008B15E0EBF3E0818121E0438162818A5032
:102CE0000C948B15E0EBF3E0818121E0438162815C
:102CF000865F0C948B158091B403882319F0815062
:102D00008093B4036091B0037091B1038091B203DA
:102D10009091B3030C9479158091B403833018F427
:102D20008F5F8093B4036091B0037091B103809181
:102D3000B2039091B3030C947915E0EBF3E083E0D8
:102D4000808311828FEF828388E783831482A2E6D7
:102D5000B3E012968C911297836012968C936081E7
:102D60007181828193810C9479151F920F920FB615
:102D70000F9211242F933F934F935F936F937F9301
:102D80008F939F93AF93BF93CF93DF93EF93FF9373
:102D9000D091E900DF708091EC00C82FC17080FDF8
:102DA000C0E81092E9008091F000877F8093F000E6
:102DB00078940E94080B1092E9008091F0008860DE
:102DC0008093F000CD2BCF70C093E900FF91EF917D
:102DD000DF91CF91BF91AF919F918F917F916F9133
:102DE0005F914F913F912F910F900FBE0F901F90C9
:102DF00018951F920F920FB60F9211242F933F93A5
:102E00004F935F936F937F938F939F93AF93BF93F2
:102E1000EF93FF938091E10082FF09C08091E2006F
:102E200082FF05C08091E1008B7F8093E10080915B
:102E3000DA0080FF24C08091D80080FF20C08091FC
:102E4000DA008E7F8093DA008091D90080FF9FC0E6
:102E500080E189BD82E189BD09B400FEFDCF81E03A
:102E60008093D3038091BD03811109C00E941C0689
:102E70000E940F078091E20084608093E2008091BD
:102E8000E10080FF17C08091E20080FF13C08091B5
:102E9000E2008E7F8093E2008091E2008061809367
:102EA000E2008091D80080628093D80019BC85E050
:102EB0008093D3038091E10084FF2DC08091E200D4
:102EC00084FF29C080E189BD82E189BD89B5982F41
:102ED000917080FFFBCF8091D8008F7D8093D800C8
:102EE0008091E1008F7E8093E1008091E2008F7EEF
:102EF0008093E2008091E20081608093E200809103
:102F0000CA03882309F449C084E08093D3030E9454
:102F1000F90A0E94EF098091E10083FF27C08091A8
:102F2000E20083FF23C08091E100877F8093E1006E
:102F300082E08093D3031092CA038091E1008E7FD8
:102F40008093E1008091E2008E7F8093E200809187
:102F5000E20080618093E20042E060E080E00E9455
:102F6000DD068091F00088608093F000FF91EF9182
:102F7000BF91AF919F918F917F916F915F914F9191
:102F80003F912F910F900FBE0F901F90189519BC75
:102F90001092D3031092BD0372CF8091E30087FD9E
:102FA00093E09093D303B3CF78941F921FB61F92F0
:102FB00011248F939F93AF93BF938091450390917A
:102FC0004603A0914703B09148030196A11DB11D8E
:102FD0008093450390934603A0934703B09348031F
:102FE000BF91AF919F918F911F901FBE1F90189519
:102FF0002FB7F8948091450390914603A091470321
:10300000B09148032FBF08950F931F93CF93DF9381
:10301000C42FD22FFC0182818823A1F04093E002CB
:103020000E94F8179093DD028093DC02C77081E064
:1030300001C0880FCA95EAF7DF91CF911F910F91D8
:103040000C944E091091E002141335C08091DC02FB
:103050009091DD020E94E607883C910560F5C0E290
:10306000CD0F1D17B9F080E2810F883040F4177042
:1030700081E001C0880F1A95EAF70E944309C83021
:1030800048F481E09D2F977001C0880F9A95EAF768
:103090000E944E09802F0E94130FC83098F4D770F9
:1030A00081E001C0880FDA95EAF7DF91CF911F9197
:1030B0000F910C944309C77081E001C0880FCA9535
:1030C000EAF7F3CFDF91CF911F910F9108956091AF
:1030D000B003669570E04BE050E084E091E00E9420
:1030E0003A2D892B19F481E0809363030E94F8172D
:1030F00090935D0380935C0380916403846080936C
:10310000640308959091B00390FF3BC091708111CA
:103110002EC092609093B00380916403816080938D
:103120006403662351F06091B0037091B103809104
:10313000B2039091B3030E9479156091B003669534
:1031400070E04BE050E084E091E00E943A2D892B42
:10315000A9F00E94000A81E080935F0320E0409183
:10316000B3036091B2038091B1030C948B158B3241
:1031700010F09465CFCF880F982BCCCF0E946718A2
:10318000EACF08958091B0038695815009F48AE2D0
:1031900061E00C9482188091B00386958F5F8B322A
:1031A00008F081E061E00C9482189091B00390FFE8
:1031B00007C09695981720F0961710F40C94CB182A
:1031C00061E00C9482183F924F925F926F927F92CF
:1031D0008F929F92AF92BF92CF92DF92EF92FF9227
:1031E0000F931F93CF93DF9300D000D00F92CDB7F2
:1031F000DEB77C01FC0183819481892B31F08081D1
:10320000918189238F3F09F0F3C50F900F900F90A4
:103210000F900F90DF91CF911F910F91FF90EF9042
:10322000DF90CF90BF90AF909F908F907F906F90E6
:103230005F904F903F9008950E94A013182F682F21
:1032400089819A810E94770869817A81812F0E9401
:103250002B128C01F7018281882309F4BEC5C801B5
:1032600082519F45409708F04DC58FEF93E00E9433
:10327000F32F025156EA852E99249394882381F1E5
:1032800080913C03877009F4C0CFF70182818823C5
:1032900009F4BBCF82E00F900F900F900F900F902A
:1032A000DF91CF911F910F91FF90EF90DF90CF9022
:1032B000BF90AF909F908F907F906F905F904F9056
:1032C0003F900C94F2088114F4E09F06C9F2C40107
:1032D0000E94F32F811101C001502FEF821A920A30
:1032E0000111F1CF1C821B82662463944AE0542EA4
:1032F00084010F5F1F4FC4010E94F32F89831A823C
:10330000882309F4BDCF9FEF980F933008F58A8387
:10331000698232E0830E911CC8010E94F32F8B83D7
:10332000882309F4ADCF8E010F5F1F4FF801208174
:103330002223F1F2213009F043C091818281913042
:1033400049F40E5F1F4F0E94130F0F5F1F4FEECF08
:103350004801E9CF923029F40E5F1F4F0E94B50952
:10336000F4CF933029F40E5F1F4F0E945809EDCF20
:10337000943019F00F5F1F4FE8CF0E5F1F4F30E002
:1033800020E0B8016F5F7F4FF80141818053990BB6
:103390008A30910550F021503109B8F28FE99FE051
:1033A0000197F1F700C00000F6CF529EF001539E46
:1033B000F00D11249C012E0F3F1F842F8B01E1CFB4
:1033C000E22FF0E0ED5AFB4F7490822F86958695A0
:1033D000869590E0FC01ED5BFB4FA4902770B12C2B
:1033E000022E02C0B594A7940A94E2F7E1E0AE225F
:1033F000BB24FC01ED5CFB4FC490D12C02C0D594E2
:10340000C7942A95E2F7F1E0CF22DD24A114B1049C
:1034100019F081EE0E94B509C114D10419F086EEAD
:103420000E94B509872D0E94130FCD2819F086EE52
:103430000E945809AB2809F488CF81EE96CF81E02D
:103440000E940A090E94B3081BCF81E00E94CF08A6
:10345000F9CF82E0F5CFC8016CC41092DF02109260
:10346000DE0293C4053F2CE5120709F463C008F49B
:103470005BC0063F8CE5180709F462C0F701928132
:10348000992309F4C6C41092E0020230FCE51F073C
:1034900008F440C106312CE5120738F098012A5F84
:1034A0003C452930310508F035C10E94F711909351
:1034B00054038093530300313CE5130709F4F9C02A
:1034C00008F087C008309CE5190709F4E8C008F047
:1034D00056C00430FCE51F0709F4D9C0E8F50230F6
:1034E0003CE5130709F4C9C003301C4509F4CBC0FF
:1034F000609153031091540384E090E00E940730E0
:10350000612F81E290E00E9407300E94F90AB8CE54
:1035100007E225EE45EE68ED7CE55BC406E221EEB0
:1035200040EE63EF7CE555C407E225EE44EE64EF20
:103530007CE54FC406E221EE42EE65EF7CE549C42E
:1035400007E225EE46EE66EF7CE543C408E221E0A3
:1035500045EE69ED7CE53DC4809153038061063002
:103560009CE5190709F48CC08091530388600730EB
:103570001C4508F485C080915303806281C080910E
:1035800053038D7F0C30FCE51F0709F479C070F4FC
:10359000809153038C600A303CE5130709F470C036
:1035A00008F481C0809153038E7F6AC080915303D9
:1035B000877F0E309CE5190709F462C080915303A0
:1035C0008B7F0F301C4508F45BC0809153038F7EC6
:1035D00057C00B3FFCE51F0709F45DC030F5033110
:1035E0003CE5130709F46DC078F401319CE5190737
:1035F00009F463C002311C4509F07ACF0E94F90A30
:10360000809153038F773CC00531FCE51F0709F417
:1036100060C008F474C08091540381600A3F1C4567
:1036200009F066CF8093540363CF0F3F8CE51807F2
:1036300009F44BC088F4809154038D7F0D3FECE575
:103640001E0781F3809154038E7F0E3F1C4550F37B
:10365000809154038360E6CF01302DE5120709F411
:1036600057C008F442C060E002301D4509F040CF69
:103670008EE090E00E9407303BCF80915303816041
:103680008093530335CF809153038260F9CF8091AB
:1036900053038460F5CF809154038260C3CF80913F
:1036A00053038064EDCF0E94F90A80915303806830
:1036B000E7CF809153038F7DE3CF809153038F7BBE
:1036C000DFCF80915303837FDBCF809154038C7FC6
:1036D000A9CF8091530382FB992790F921E092278B
:1036E00090FB82F990FB83F9CBCF80915403982F04
:1036F000909591708E7F892B90FB81F993CF0E94DA
:10370000F90A90915303892F97FB87F98058B8CF16
:1037100061E0AECF0631ECE51E0709F08CC3809165
:103720003F038A7A91E009F490E09093E10269E224
:10373000811165E386EE91E00E9401080E94210854
:103740009FCD8091E10281110FC089E2E8EEF1E0A6
:103750002EEE31E09191891303C0DF0111971C9285
:103760002E173F07B9F7EACF85E3F0CF8091B0037A
:1037700080FF20C08E7F8093B0036091B003709172
:10378000B1038091B2039091B3030E9479150E9416
:10379000000A80916403816080936403FFEF20E757
:1037A00032E0F15020403040E1F700C000000E94BC
:1037B000260F66CD81608093B00361E086950E94FC
:1037C00082185ECD42EC58E16BEC78E10E94FB0977
:1037D00057CD4BEC58E162EC78E1F8CF49E656E181
:1037E00062E776E1F3CF42E756E169E676E1EECFB4
:1037F00041E556E16DE576E1E9CF4DE556E161E55C
:1038000076E1E4CF49E356E165E476E1DFCF45E4D4
:1038100056E169E376E1DACF4BE756E16CE876E111
:10382000D5CF4CE856E16BE776E1D0CF61E081E09F
:10383000C6CF65E082E00E94D51822CD68E086E020
:10384000FACF6EE089E0F7CF64E18FE0F4CF67E173
:1038500085E1F1CF61E088E1B2CF62E289E1EBCFAF
:1038600061E083E2ACCF0E94F90A8FEF94E3ECE0D1
:1038700081509040E040E1F700C000000E94D50771
:103880000E941615FDCCC8010E944E08D82EEAC22F
:10389000212F2F70C22E107F19F0C29490EFC922F1
:1038A0009920C9F0CC2069F080E28B0D883010F0AF
:1038B00001110BC080913F03C82AC0923F030E94B0
:1038C00021088B2D0E94B50919C080913E03C82A9A
:1038D000C0923E03F4CF8B2D0E945809CC2071F08A
:1038E000C09480E28B0D883010F001113CC08091B3
:1038F0003F03C822C0923F030E942108ED2DE850EB
:10390000FF0B349710F40E94EF09332009F47DCCAB
:1039100080913C0380FD79CCF701128285958595D5
:1039200085950E940A09C7010E94E31880913C0313
:103930008595859585950F900F900F900F900F901E
:10394000DF91CF911F910F91FF90EF90DF90CF907B
:10395000BF90AF909F908F907F906F905F904F90AF
:103960003F900C94CF0880913E03C822C0923E0342
:10397000C3CF312F3F70C32E107F103219F0C29485
:1039800080EFC822002369F0013061F19920B9F17C
:10399000AA2071F1F701858180FF93CF8F70858315
:1039A00027C0992091F0909140038C2D892BA11074
:1039B00003C00E944E09A2CFE1E0AE12FACF9817E1
:1039C00009F49CCF8093400399CFA11006C00E94B8
:1039D0001B088C2D0E94430991CFF1E0AF1609F42A
:1039E0008DCFF5CF992031F025E02A1508F486CF48
:1039F0008C2DDFCF34E03A1508F480CFEACFAA202F
:103A000041F3093349F4FFEF27EE33E0F150204052
:103A10003040E1F700C000008B2D0E9458096ECFA6
:103A2000812F837009F06CC0911068CF8B2D829527
:103A300086958770880F880F6B2D6F70462E512CDE
:103A4000712C612C082E04C0440C551C661C771C7C
:103A50000A94D2F740E050E0BA01B4FE0FC04FE044
:103A600050E060E070E004C0440F551F661F771FF0
:103A70008A95D2F740955095609570951695169554
:103A80001370123019F1A8F5809041039090420311
:103A9000A0904303B0904403113069F044295529A4
:103AA00066297729CB01BA01682179218A219B21D6
:103AB0000E942B0923CF84289528A628B728CB015C
:103AC000BA01682979298A299B29F2CF44295529E5
:103AD000662977298090410390904203A090430388
:103AE000B0904403CB01BA01682579258A259B252E
:103AF000DFCFCB01BA016429752986299729D8CF50
:103B00008695992011F0812F8170882309F4F6CED3
:103B10008B2D829586958770880F880F6B2D6F701F
:103B2000462E512C712C612C082E04C0440C551CBF
:103B3000661C771C0A94D2F740E050E0BA01B4FE4C
:103B40000FC04FE050E060E070E004C0440F551F2C
:103B5000661F771F8A95D2F74095509560957095AE
:103B6000169516951370123019F1A8F58090D403AC
:103B70009090D503A090D603B090D703113069F090
:103B80004429552966297729CB01BA016821792171
:103B90008A219B210E94A508B1CE84289528A628B9
:103BA000B728CB01BA01682979298A299B29F2CF44
:103BB00044295529662977298090D4039090D5030C
:103BC000A090D603B090D703CB01BA016825792520
:103BD0008A259B25DFCFCB01BA0164297529862967
:103BE0009729D8CF1F70992029F0812F0E940A09A8
:103BF0008B2DDFCE8B2D0E944309812F0E94CF0891
:103C00007DCE8B2D023F09F44AC060F4003FF9F0ED
:103C1000013FE9F1992009F465C0A11052CE812F2E
:103C20008F713AC0033F09F43FC0043F99F79920D0
:103C300009F44DC01F71812F0E940A09E8E01E9F00
:103C4000C0011124836080933C03812F25C09920FB
:103C5000C9F084E08A1508F451CE1F7161E070E06C
:103C600080E090E004C0660F771F881F991F1A95A7
:103C7000D2F78090D4039090D503A090D603B09053
:103C8000D703A4CF95E09A1508F438CEE6CF812F5C
:103C90008F71992009F4B2CF0E940A092FCE812F8B
:103CA0008F719920C9F3AACF60E070E0CB01992011
:103CB00009F470CF1F7161E070E080E090E004C013
:103CC000660F771F881F991F1A95D2F763CF81E07F
:103CD0000E94F208F1E0FA1508F010CE82E00E948E
:103CE000F2080CCEAA2059F0893309F095CE2FEFB7
:103CF00037EE83E0215030408040E1F78BCE812FBA
:103D00008F717CCF0031FFE51F0709F498CB01319B
:103D10002FE5120709F49DCBC8019056811520E2CA
:103D2000920728F0905E8115904108F094CBC8016D
:103D3000992720E28C33910520F4FC01EC56FE4FCC
:103D400020811F922F939F938F93F70180811F9261
:103D50008F9381811F928F9385E391E09F938F933F
:103D60001F9288E18F9385E693E09F938F930E9443
:103D7000542D0FB6F894DEBF0FBECDBF8091DE028A
:103D80009091DF02449709F468CB8091DE02909114
:103D9000DF0201969093DF028093DE02033F3CE551
:103DA000130709F4BBCB08F05DCB083D9CE5190770
:103DB00009F4AECB093DECE51E0709F4C7CB073D7E
:103DC000FCE51F0709F05ACB06E221EE41EE67ED54
:103DD0007CE5C7010E94041853CA00313FE5130770
:103DE00009F433CB01318FE51807C1F682E02ECB01
:103DF00085E0DE01119601900D928A95E1F7F701B9
:103E0000228189819A81211117CA0E944E08182F98
:103E10001BCA0631FCE51F0709F493CC80913F03D0
:103E20008272F801E25CFC45E431F10568F4E85483
:103E3000FF4C0C94822C01152CE5120709F413CDCC
:103E40000E3D1C4509F41CCDF70100811181992319
:103E500009F419CDC8010E94A013D82E682FC801FB
:103E60000E947708B8018D2D0E943812B82E192FA4
:103E7000082FF701A580A2943FE0A3229280911021
:103E800010923E0380913C03877099F0992089F04D
:103E9000812F807F803421F080E28B0D883048F0C4
:103EA00082E00E94F20880913C03877033243394AF
:103EB0008111312CD12ED2942FE0D222FBE0FD15BE
:103EC00008F41CCDED2DF0E0E453FF4C0C94822C53
:103ED0001F93CF93DF938091EB02807FA9F48091B1
:103EE000E802882389F080911D03D091EC02609153
:103EF000E6027091E702A091E902B091EA02C62FB2
:103F0000C72316E0D81304C0DF91CF911F91089505
:103F100090E0109711F0CF3F19F401968770F2CF1F
:103F2000189F9001199F300D1124F901E351FD4FA5
:103F300041814713F2CF40814613EFCF42814111B7
:103F4000ECCF438154814A1B5B0B483C510528F759
:103F50008091EB028F7080618093EB02F901EE504B
:103F6000FD4F80818F708061808386EE92E00E9499
:103F7000E318DF91CF911F910C943909AF92BF9252
:103F8000CF92DF92EF92FF920F931F93CF93DF9325
:103F9000CDB7DEB761970FB6F894DEBF0FBECDBFC9
:103FA0008C0185E0F801DE011D9601900D928A9545
:103FB000E1F7F80180819181E28026EEA22E22E0D5
:103FC000B22E6091E9027091EA026115710509F45F
:103FD0003EC13091E6024091E702232F24232F3F78
:103FE00009F435C1C380D480F090E802F601E61BE5
:103FF000F70BFF2009F4FBC02091EB02522F507FFA
:10400000E83CF10508F0BBC0511178C0FE2C491303
:1040100021C038131FC0E1101DC02F7020612093F4
:10402000EB02C5010E94E3188091EB02F801858341
:104030008F2D61960FB6F894DEBF0FBECDBFDF9116
:10404000CF911F910F91FF90EF90DF90CF90BF9095
:10405000AF900895CD2829F0282F29232F3F09F06C
:1040600014C120E0F22FF170DF2E20FF3DC020911F
:104070001D034091EC0256E0241315C08D879E87E6
:104080008D859E850E94E213292F22952F70223064
:10409000F8F0243020F59F70F9F0F8019581907FB9
:1040A000D9F4D12C1FC030E0529FF001539FF00D86
:1040B0001124E351FD4F6181961306C06081861380
:1040C00003C06281E61210C02F5F3F4F2770D4CF2C
:1040D0009F7011F0882329F3805E883010F3C801A7
:1040E0000E94E318FD2CA4CFEE2009F4A1CF80910B
:1040F000EB0281608093EB02F12C9ACF491312C03E
:10410000381310C0E1100EC0F8012583C8010E94C9
:10411000E31886E0F801A6EEB2E001900D928A95D0
:10412000E1F786CF8D879E878D859E850E94EC1353
:10413000882309F1EE20F9F08091EB02803270F0D3
:104140002091E6023091E70238872F831986DB86BB
:10415000CA868C87CE0107960E94E31886E0F80194
:10416000A6EEB2E001900D928A95E1F70E94681FD9
:10417000FF24F3945DCFC8010E94E318F9CF5111D9
:104180000AC086EE92E00E94E31886E0F5011192E3
:104190008A95E9F7B1CF49130FC038130DC0E1106C
:1041A0000BC0F8012583C8010E94E31886E0F501E1
:1041B00011928A95E9F73CCF8D879E878D859E85E4
:1041C0000E94EC138823B9F2EE20A9F28091EB0251
:1041D000803220F22091E6023091E7023A8329836F
:1041E0001B82DD82CC828E83CE010196B5CFE83C66
:1041F000F105E0F6FE2CEE2009F4BDCF491316C000
:10420000381314C08091EB0280FD83CF982F907FEC
:1042100009F47FCFF8018583903F09F477CF982F79
:10422000907F905F8F70892B858370CF8D879E875D
:104230008D859E850E94EC13811190CF8091EB02B9
:1042400081608093EB02C8010E94E318F1CEEE205A
:1042500009F491CF8D879E878D859E850E94EC13F2
:10426000F82E882309F487CF86E0F801A6EEB2E0A5
:1042700001900D928A95E1F78091E6029091E70214
:104280000E94E2130E94681FD3CE21E02E25EACEC1
:104290001F93CF93DF93CDB7DEB767970FB6F89430
:1042A000DEBF0FBECDBF4B8B5C8B6D8B7E8B8F8B40
:1042B0001A8A198A85E0FE017396DE011D96019027
:1042C0000D928A95E1F786E0FE013D96DE01179694
:1042D00001900D928A95E1F7CE0107960E94BE1FCC
:1042E000882389F016E080911D039091EC028913D8
:1042F00049C067960FB6F894DEBF0FBECDBFDF9101
:10430000CF911F91089586E0FE013796DE01119648
:1043100001900D928A95E1F78A859B85892B11F38F
:104320008F81988589238F3FE9F22091EC0230E05C
:10433000C90101968770992740911D0348171906F6
:1043400071F40E94F90A1092EC0210921D0386E0AB
:10435000E6EEF2E0DF011D928A95E9F7C3CF96E021
:10436000929FD001939FB00D1124A351BD4FFE0128
:10437000319601900D929A95E1F78093EC020E949C
:104380003909B0CF819FC001112483519D4F0E94F4
:10439000BE1F882309F4ADCF80911D0390E00196E4
:1043A0008770992780931D039ECF8F929F92AF9223
:1043B000BF92CF92DF92EF92FF920F931F93CF9312
:1043C000DF9360ED71E029E4822E23E0922ED0E0AD
:1043D000EE24E394F12CDB018D91BD01E82FE295F1
:1043E000EF70F0E091A18F70870101C0000F8A95F6
:1043F000EAF7892F802B81A392A1C02FC0959C231F
:1044000092A3B0EABA95F1F798EDC92E91E0D92EB2
:1044100050E040E020E0D6013D916D01A32EA29432
:104420008FE0A822B12CD50190968C9190E03F703E
:1044300002C0959587953A95E2F780FD49C08E2D8B
:10444000042E01C0880F0A94EAF7282B4F5F5F4FB4
:104450004630510501F781A18C2381A382A1082B4D
:1044600002A3F40180812817A9F1208381E0D82BD1
:10447000FFEF8F1A9F0A81E0643D780709F0ABCF08
:10448000C0915203DD2341F181E08093F1010E944C
:10449000F8179093F0018093EF018091EF019091D4
:1044A000F0010E94E6070697D8F0EC2FF0E0EB54FD
:1044B000FC4F80914903808380914A0381838091DE
:1044C0004B03828380914C0383831092F10108C0D7
:1044D00080E0BBCF80E0CBCF8091F1018111DDCFB7
:1044E0000E94DB11882309F458C0C09151038091C8
:1044F00064038823E9F085E0E0EBF3E0A2EFB1E0AC
:1045000001900D928A95E1F7809162039091630387
:10451000A09164038093F7019093F801A093F901AF
:1045200081E090E00E94C22B892B11F41092640369
:1045300090E080E00E94C22B0097A9F08091FF01DB
:104540008F5F8093FF018630F0F48D2FDF91CF9144
:104550001F910F91FF90EF90DF90CF90BF90AF90A1
:104560009F908F900895EC2FF0E0EB54FC4FDC010E
:10457000A550BE4F2C912193019684309105B9F737
:104580001092FF01E2CFE0915103F0E0EB54FC4FB9
:104590001082118212821382D8CFE09152030E2F23
:1045A00010E08091FA01883099F58091F90180FF3F
:1045B0000FC08091F20180FF3AC08091B00381600A
:1045C0008093B0038091F20160E086950E9482188A
:1045D0008091F90181FF09C020E04091F5016091CF
:1045E000F4018091F3010E948B158091F90182FF03
:1045F00006C08091F8018823E9F00E946718809135
:10460000F90183FF03C081E080935F031092FA01F8
:10461000F801EB54FC4F90E080E02191DC01A550C3
:10462000BE4F2C93019684309105B9F78ECF0E942E
:10463000C411CECF0E94000AE2CFCDB7DEB7AC974F
:104640000FB6F894DEBF0FBECDBF84B7877F84BF9F
:104650000FB6F894A89580916000886180936000FF
:10466000109260000FBE80E890E00FB6F89480933F
:104670006100909361000FBE85B7806885BF85B7E4
:10468000806885BF0E941C060E940F078091E2008F
:1046900084608093E20078948091D3038823A1F012
:1046A0001091E9001F709091EC00892F817090FDAE
:1046B00080E8182B1092E9008091E80083FD0E94A9
:1046C000080B1F701093E90082E084BD93E095BD54
:1046D0009AEF97BD80936E000E94DB1180932201B8
:1046E0000E94DB11882331F062E070E082E191E00A
:1046F0000E94E02A809122018091220194E08111A0
:1047000090E09093520384E0891B80935103A0EDC5
:10471000B1E044ED51E061E070E08D91E82FE29569
:10472000EF70F0E011A18F709B0101C0220F8A95FC
:10473000EAF7922F9095912391A382A1822B82A3D5
:104740004A175B0751F7A8EDB1E061E070E08D9189
:10475000E82FE295EF70F0E041A18F709B0101C05E
:10476000220F8A95EAF7922F9095942391A382A124
:10477000822B82A321E0AE3DB20749F7E9E4F3E0E2
:1047800081E593E0A5EBB3E011921D928E179F0790
:10479000D9F70E94D5218FE39CE90197F1F700C07A
:1047A00000000E94D5218091B50380FF0BC080E0FE
:1047B0000E9475146FEF7FEF90E080E00E9425303B
:1047C0000E94D50790E080E00E9401308C3E9E4F11
:1047D00011F00E9416150E94DB1180937D030E9448
:1047E000DB11811106C062E070E082E191E00E947D
:1047F000E92A82E290E00E94F32F803209F057C547
:1048000083E290E00E94F32F813109F050C584E2E9
:1048100090E00E94F32F833009F049C580917D0319
:1048200081118AC182E080939E0380E88093D8033F
:104830000E9494296DE070E086EE94E00E94950E4F
:10484000892BE9F580919E0363E070E081FD76C1DC
:1048500083EE94E00E94950E892B89F56DE070E05F
:1048600083ED94E00E94950E892B49F50E94F5078F
:10487000605A75418F4F9F4F6093A0037093A103BF
:104880008093A2039093A303EBEDF3E080E092E02A
:10489000DF019C011D9221503040E1F7F093E205C9
:1048A000E093E1058FEF9FEF9093DA038093D903B4
:1048B00081E08093A5038093A40310929F0390E06E
:1048C00080E00E9401308C3E9E4F11F00E94161530
:1048D00082E090E00E94F32F8093A7030E94F711DB
:1048E000909354038093530383E090E00E94F32F4E
:1048F000682F70E090E080E00E942B0980915503C2
:1049000081113BC090E080E00E9401308C3E9E4FC0
:1049100021F00E9416150E949D1688E090E00E94EA
:10492000FB2F6093B0037093B1038093B203909315
:10493000B303809164038360809364036E7F71F49A
:104940000E949D1688E090E00E94FB2F6093B003C8
:104950007093B1038093B2039093B3030E94070A4C
:104960000E94000A8091B00380FF04C060E0869539
:104970000E94821881E0809355038AE291E090932F
:1049800057038093560322242394312C85EB93E024
:10499000E8E06E2E680E8091D303853009F4D1C013
:1049A0000E94D521D82E0E94DB11882309F40BC167
:1049B000E8EAF3E0A5EBB3E010E000E0302F8D91E2
:1049C0009191981709F4F9C0292F282790E0FF2426
:1049D000F3944F2D422309F4EBC099A33AA38F21FE
:1049E00091E009F490E09BA30E94F8178160782F72
:1049F0009DA38CA349A15AA16BA18DA10E9448211E
:104A0000F801E855FC4F8081F826F082809163031D
:104A1000882309F46AC080916203E091B003E695AF
:104A2000E81BE0935E03823009F0DEC0F0E0EC5F4B
:104A3000FA4FE4910E2F10E060EAE62E61E1F62EC7
:104A400080915F03882389F010925F030E94F8171A
:104A5000980120953095820F931F90935D0380936A
:104A60005C03109261031092600380915C0390914B
:104A70005D030E94E60780179107B8F180915B0300
:104A80008823B1F010925B038091590390915A03EF
:104A90000E94E6078033954758F00E94F8179093DC
:104AA0005A03809359038091640388608093640360
:104AB000A0906003B0906103E0915C03F0915D030E
:104AC0000E0F1F1F10935D0300935C038CE593E0B2
:104AD000F70109958091600390916103892B29F476
:104AE000AB2819F081E080935B038091A5038823B4
:104AF00009F478C12BED33E03093E2052093E10512
:104B000080917D03882309F4B8C186E491E00E9476
:104B1000550E8091D4039091D503A091D603B09106
:104B2000D7038F309105A105B10508F0D0C0FC0175
:104B3000E852FF4C0C94822C80E075CE80EE94E01D
:104B400089CE8091D303843021F11092580388E1FB
:104B500090E020E40FB6F894A895809360000FBE13
:104B60002093600083B7817F846083BF83B78160B7
:104B700083BF7894889583B78E7F83BF0FB6F894F0
:104B8000A895809160008861809360001092600019
:104B90000FBE8091C903882309F4FDCE0E94D52160
:104BA000E5EBF3E0819181116CC36E12FBCFF3CE84
:104BB0009F5FFF0C963009F00CCF0F5F1F4F08303E
:104BC000110509F0FBCE8FEF8EA38FA318A60E94CC
:104BD000F8178160782F9AA789A74EA15FA168A5D1
:104BE0008AA50E94482112CF863059F4F0E0EF5F89
:104BF000FA4FE4910E2F10E054EBE52E51E1F52E23
:104C00001FCF893061F4E695F0E0E250FB4FE4916C
:104C10000E2F10E04BE5E42E4FE0F42E11CF8F3035
:104C200061F4E695F0E0E550FB4FE4910E2F10E0C3
:104C300035E8E32E3FE0F32E03CF853159F4F0E061
:104C4000E850FB4FE4910E2F10E020E1E22E20E12E
:104C5000F22EF6CE08E210E0B4E7EB2EB0E1FB2E28
:104C6000883109F4EDCE833249F4E6EFF4E00591A2
:104C7000149197E4E92E91E1F92EE2CE04EF11E0D0
:104C8000ADEFEA2EA0E1FA2E843209F4D9CE00ED80
:104C900017E0FEECEF2EF7E0FF2E853209F0D0CEC4
:104CA0008E2F63E00E94402CE92FF0E0ED50FB4F87
:104CB000E4910E2F10E08DE8E82E84E1F82EC0CEAE
:104CC0008EE491E00E94550E81E00E94630EE5E6BD
:104CD000F3E001900020E9F7CF0101977C0105E6A0
:104CE00013E00E151F0508F4C2C02091D9033091BE
:104CF000DA032115310509F457C080919F03811112
:104D000053C0082F10E07101082E02C0EE0CFF1CEA
:104D10000A94E2F7A9014E215F21452B09F4B2C0A4
:104D200090919E0390FDB0C08295880F807680930D
:104D300025019801369527953695279520932801CA
:104D4000815E809326011092290124E630E047E03D
:104D500050E063E271E088E70E94252A892B21F563
:104D6000A80175E0440F551F7A95E1F780919E03E5
:104D700080FD98C045525C4F04E610E020E230E030
:104D800060E488E70E944C2A892B71F40E94C50ECA
:104D9000E094F0948091D9039091DA03E822F9220B
:104DA000F092DA03E092D9038091A4038823D1F032
:104DB0000E94F5070091A0031091A1032091A20386
:104DC0003091A303601B710B820B930B97FD0AC0FC
:104DD00062E070E088E495E00E94950E892B11F462
:104DE0001092A403D1100E94C50E0E94EF09909169
:104DF000A603891721F00E94EF098093A6038091F2
:104E0000D303843009F0C7CD83E08093E90080911B
:104E1000E80082FFC0CD8091E80090E085FF0CC0E3
:104E20000E943B0630E2E32EF12C8E010F5F1F4FF4
:104E3000882309F4A4C091E08091E8008B778093E7
:104E4000E800992309F4A7CDE981E150E33108F0A6
:104E5000D6C0F0E0E951FF4C0C94822C86E591E03D
:104E600031CF8CE591E02ECF82E691E02BCFD801B7
:104E70008D918D010E94D40D34CF88E095E00E9481
:104E8000550E33CF8F5F3DCF880F880F880F8093EB
:104E9000250110922801895F8093260183E0809389
:104EA000290153CF80E2EEE7F3E011928A95E9F70A
:104EB00022EE31E03CA72BA70EED11E067E0962E25
:104EC000ABA5BCA52D91BCA7ABA7F80141908F0164
:104ED000440E552E511CC20185529C4F2C01E22FCD
:104EE000F0E0E258FC4F30E020E0792C721AC22C3E
:104EF000022E01C0CC0C0A94EAF7520190E0D501D1
:104F00008D915D018C21672D691B6770862E062EA1
:104F1000000C770BB82F01C0BB0F8A94EAF78B2ED9
:104F20007195619571096770772701C086956A95BB
:104F3000EAF7882A8081882A80829F5F9830F9F674
:104F40002F5F3F4F31962830310579F6E6EEF1E0DC
:104F50002BA53CA5E217F30709F0B2CF04E610E059
:104F600020E230E04EE753E00BCF8091F100D80112
:104F70008D938D01B1E0EB1AF10809F45CCF8091BB
:104F8000E80085FDF2CF8091E8008B778093E80000
:104F90000E943B06882399F34ECF1A8289E08B83C7
:104FA00010C08A81823009F48FC1833079F081305A
:104FB00031F50E94F5070E94882C6B837C838D83DA
:104FC0009E83CE0101960E949606E5CCDE011396E3
:104FD000E5EBF3E081918D9323E0ED3BF207D1F710
:104FE000F0CF8A81823059F46B817C818D819E81E2
:104FF0000E94882C85E290E00E940730E2CF8FEF7C
:105000008983DFCF4C816B818A810E9405129827AA
:10501000892798279E838D83D4CF0D811E811027E9
:10502000012710278A81EB803CE0E39E7001112468
:1050300090E6899FE00CF11C11248C8190E0880F90
:10504000991FE80EF91E612FC70186960E9407304E
:10505000602FC7018796D0CF0E941014B2CF8A81EB
:105060008138C1F060F4803809F0ABCF20E04B818B
:105070006091B2038091B1030E948B15A2CF823858
:10508000E9F0833809F09DCF20E04091B3036C81B3
:105090008B81F2CF60E08B810E9482188B8181111D
:1050A00003C00E94C4118DCF8091B00381608093B2
:1050B000B00360E086950E94821883CF8B81809335
:1050C000B4037FCF8A81813899F030F4803809F0B9
:1050D00078CF8091B30363CF823891F0833809F0A1
:1050E00070CF8091B1038B838091B2038C8369CFA1
:1050F0008091B00380FF02C0869551CF80E04FCFF2
:105100008091B4034CCF6091B0037091B103809152
:10511000B2039091B3030E94791553CF80E18A8343
:1051200050CF82E08A838AE53ACFCA80DB80DC24D4
:10513000CD24DC248E010F5F1F4FEC80E00EF12E9A
:10514000F11CC6018A559E4FE016F10609F439CFCD
:10515000AAE5CA16A2E0DA0650F40E94F32FF8017D
:105160008483BFEFCB1ADB0A0F5F1F4FEACFD80152
:1051700014961C92F6CF0A811B8110270127102755
:10518000FE0131966F01EC80E00EF12EF11CC8019A
:105190008A559E4FE016F10609F413CF0A35F2E066
:1051A0001F0728F4D60114966C910E940730BFEFB8
:1051B000CB1ADB0A0F5F1F4FEACF0E94651401CFA5
:1051C00084E0ADCFCA80DB80DC24CD24DC248E01DA
:1051D0000F5F1F4FEC80E00EF12EF11CC60186968A
:1051E000E016F10609F4EDCEE0E8CE16E1E0DE06C9
:1051F00058F40E94F32FD80114968C93FFEFCF1A26
:10520000DF0A0F5F1F4FEACFF8011482F7CF0A8140
:105210001B811027012710279E012F5F3F4F690137
:10522000EC80E00EF12EF11CC8018696E016F10626
:1052300009F4C7CE003831E0130728F4D6011496DC
:105240006C910E940730BFEFCB1ADB0A0F5F1F4F34
:10525000EBCF80E00E9475146FEF7FEF90E080E06D
:105260000E942530AECECE0101960E949606EFEF49
:10527000F1EE24E0E150F0402040E1F700C00000F2
:105280009FCA80E189BD82E189BD09B400FEFDCFDE
:105290008091D8008F7D8093D8008091E00082605B
:1052A0008093E0008091E00081FDFCCF74CB60E052
:1052B00085E290E00E9407300E9410140E9465145D
:1052C00081E00E947514AACA85E290E00E94F32F43
:1052D0001B821C821D828E8374CE1F921FB61F926A
:1052E00011248F939F93AF93BF93809158038111A3
:1052F00013C08091450390914603A0914703B0915C
:1053000048034196A11DB11D809345039093460328
:10531000A0934703B0934803BF91AF919F918F91A2
:105320001F901FBE1F9018951092B9008CE08093BB
:10533000B8000895EF92FF920F931F93CF93DF93DE
:10534000182FEB011092BC0084EA8093BC000E94ED
:10535000F8177C018091BC0087FF27C08091B900BD
:10536000887F883029F08091B900887F8031D9F515
:105370001093BB0084E88093BC000E94F8178C0156
:105380008091BC0087FF24C02091B900287F90E065
:1053900080E02831B1F081E090E0203411F490E019
:1053A00080E09195819591090CC0CF3FDC0791F287
:1053B0000E94F8178E199F098C179D0758F28EEFDF
:1053C0009FEFDF91CF911F910F91FF90EF90089584
:1053D000CF3FDC07A9F20E94F817801B910B8C17B6
:1053E0009D0770F2ECCF8FEF9FEFEBCF0F931F93E2
:1053F000CF93DF93EB018093BB0084E88093BC00E4
:105400000E94F8178C018091BC0087FF11C0209189
:10541000B900287F81E090E0283211F490E080E02C
:10542000919581959109DF91CF911F910F910895E9
:10543000CF3FDC0741F30E94F817801B910B8C17BC
:105440009D0708F38EEF9FEFEECFCF92DF92EF92A2
:10545000FF920F931F93CF93DF936B018A01790122
:10546000B9010E949A29E6010C0D1D1DC017D10734
:1054700061F424E92093BC00DF91CF911F910F913B
:10548000FF90EF90DF90CF90089597FDF2CFB70196
:1054900089910E94F629EACFCF92DF92EF92FF9294
:1054A0000F931F93CF93DF93C62F6A017901B80141
:1054B0000E949A2997FD0CC0B8018C2F0E94F629F2
:1054C000E601EC0CFD1CCE15DF0511F097FF0CC0BA
:1054D00024E92093BC00DF91CF911F910F91FF90A1
:1054E000EF90DF90CF900895B80189910E94F6293E
:1054F000EACF84E98093BC0008958EE14A9B02C004
:105500008150E1F74A9BFECF08955A9880E28A9530
:10551000F1F75A9A0895FC013BE03A95F1F720E043
:1055200090E080E031E040E14A95F1F7880F4A9B36
:1055300002C08160232742E04A95F1F7000040E174
:105540004A95F1F79F5F6913EECF90E19A95F1F7D5
:1055500099B132E03A95F1F7000040E14A95F1F750
:1055600092FB992790F992272081920F90830895BA
:10557000EF92FF920F931F93CF93DF930F92CDB7CC
:10558000DEB719828C017C01E60EF11C0E151F0599
:1055900061F481E09981911180E00F90DF91CF91CA
:1055A0001F910F91FF90EF9008950E947D2A68E06F
:1055B000CE0101960E948B2AF80181938F01E6CFDC
:1055C0009093E5058093E4056093E305529A5A9A17
:1055D00008959093E5058093E4056093E305529860
:1055E0005A9AEA9AE9E6F0E080818F7C80830895F8
:1055F0006150770B91E001C0990F6A95EAF720E0BE
:1056000031E0911108C0222391F05A9A80E28A95E4
:10561000F1F75A980895492F482339F05A9A2327C9
:1056200040E24A95F1F79695ECCF5A98F9CF5A98FF
:10563000EDCFFF920F931F93CF93DF93EC018C017B
:10564000060F111DC017D10731F4DF91CF911F91C3
:105650000F91FF900895F9900E94852A68E08F2DA0
:105660000E94F82AEFCF1F920F920FB60F921124CB
:105670000F931F932F933F934F935F936F937F935A
:105680008F939F93AF93BF93EF93FF93CF93DF934A
:105690000F92CDB7DEB719820E947D2A67E0CE0156
:1056A00001960E948B2A082F069506950695982F3D
:1056B00092959570202F2570920F292F2370969523
:1056C00096958770920F891344C08981811141C0DA
:1056D0008091E3058017E8F120E12A95F1F75A9AC5
:1056E000529A82E08A95F1F700C0A8E00A9FC001B3
:1056F00011240091E4051091E505080F191F5A982F
:10570000F8016581662321F0868197810E94192B1B
:105710000E94852AF0E1FA95F1F75A9852985A9A20
:1057200020E12A95F1F7D80112966C911297662321
:1057300031F113968D919C910E94B82AD801ED9178
:10574000FC91882311F088E001C082E080830E94F0
:105750007D2A0F90DF91CF91FF91EF91BF91AF9193
:105760009F918F917F916F915F914F913F912F9179
:105770001F910F910F900FBE0F901F901895ED91F4
:10578000FC91E1CF0F931F93CF93DF932091E3051B
:10579000281719060CF471C08C0193E0000F111F3B
:1057A0009A95E1F7C091E405D091E505C00FD11FAE
:1057B000F894529A5A9825E02A95F1F70000982F0C
:1057C000969595708570980F892F8370969596950C
:1057D000980F092B0E94852A00C067E0802F0E9445
:1057E000F82A80E18A95F1F752985A9A4A9B17C095
:1057F00087E090E04A9915C06D81662321F18E8182
:105800009F810E94B82A81111EC0529A5A9AE8813B
:10581000F98182E08083789482E090E00DC000C03E
:10582000E5CF019771F4529A5A9AE881F98181E0A3
:105830008083789481E090E0DF91CF911F910F9168
:10584000089500C0D7CF0E947D2A20E22A95F1F763
:105850005A98529A80E18A95F1F76A81662321F07D
:105860008B819C810E94192B0E94852AE881F981F5
:105870001082789490E080E0DFCF84E090E0DCCF8D
:10588000991B79E004C0991F961708F0961B881F92
:105890007A95C9F78095089587FB082E062687FD1F
:1058A000819567FD61950E94402C0EF4919507FC4F
:1058B00081950895AA1BBB1B51E107C0AA1FBB1FFE
:1058C000A617B70710F0A61BB70B881F991F5A958C
:1058D000A9F780959095BC01CD01089597FB072EFF
:1058E00016F4009407D077FD09D00E945A2C07FCCB
:1058F00005D03EF4909581959F4F089570956195E0
:105900007F4F0895EE0FFF1F0590F491E02D09944D
:1059100069279627692778278727782708950E947F
:105920008F30332312F48A1B9B0B0C94992C0E940A
:105930008F30B7FF0895821B930B08952F923F92EB
:105940004F925F926F927F928F929F92AF92BF928F
:10595000CF92DF92EF92FF920F931F93CF93DF933B
:10596000CDB7DEB7CA1BDB0B0FB6F894DEBF0FBE98
:10597000CDBF09942A88398848885F846E847D84E5
:105980008C849B84AA84B984C884DF80EE80FD80E7
:105990000C811B81AA81B981CE0FD11D0FB6F8945D
:1059A000DEBF0FBECDBFED0108958F929F92AF92E3
:1059B000BF92CF92DF92EF92FF92CF93DF93EC01F1
:1059C000688179818A819B816115710581059105C5
:1059D00021F464E279ED8BE597E02DE133EF41E0CE
:1059E00050E00E943B3049015A019B01AC01A7EAFB
:1059F000B1E40E945A306B017C01ACEEB4EFA5011A
:105A000094010E946830DC01CB018C0D9D1DAE1D00
:105A1000BF1DB7FF03C00197A109B04888839983D0
:105A2000AA83BB839F77DF91CF91FF90EF90DF90A8
:105A3000CF90BF90AF909F908F9008950E94D52CEB
:105A4000089580E091E00E94D52C0895B0E0A0E098
:105A50008093000190930101A0930201B093030190
:105A60000895FB01DC0102C005900D9241505040A9
:105A7000D8F70895FC014150504030F001900616CF
:105A8000D1F73197CF010895882799270895FB0111
:105A9000DC0104C08D910190801921F441505040E7
:105AA000C8F7881B990B0895AEE0B0E0EAE5FDE287
:105AB0000C94AC2C0D891E898F89988D26E02C833F
:105AC0001A83098397FF02C080E090E801979E83C4
:105AD0008D83AE01455E5F4F698D7A8DCE01019653
